:020000040800F2
:100000002814002089010008E1210008F51E0008DD
:10001000DD21000895040008C52A00080000000042
:100020000000000000000000000000003127000870
:10003000E504000800000000112200086527000800
:10004000A3010008A3010008A3010008A301000800
:10005000A3010008A3010008A3010008A3010008F0
:10006000A3010008A3010008A301000899040008E7
:10007000A3010008A9040008A3010008A3010008C7
:10008000A3010008A3010008A3010008A3010008C0
:10009000A3010008A3010008A3010008A3010008B0
:1000A000A3010008A3010008A3010008A3010008A0
:1000B000A3010008A3010008A3010008A301000890
:1000C000A3010008A3010008A3010008A301000880
:1000D000A3010008A3010008A3010008A301000870
:1000E000A3010008A3010008A301000800F002F822
:1000F00000F03AF80AA090E8000C82448344AAF188
:100100000107DA4501D100F02FF8AFF2090EBAE885
:100110000F0013F0010F18BFFB1A43F0010318473B
:100120001C2B00003C2B0000103A24BF78C878C17B
:10013000FAD8520724BF30C830C144BF04680C60ED
:10014000704700000023002400250026103A28BF35
:1001500078C1FBD8520728BF30C148BF0B60704739
:100160001FB51FBD10B510BD00F058F81146FFF7C0
:10017000F7FF02F0E3FC00F076F803B4FFF7F2FFBC
:1001800003BC00F07DF8000009488047094800479B
:10019000FEE7FEE7FEE7FEE7FEE7FEE7FEE7FEE737
:1001A000FEE7FEE704480549054A064B7047000094
:1001B000E5270008ED000008280E00202814002084
:1001C00028100020281000204FF0000200B5134630
:1001D00094469646203922BFA0E80C50A0E80C5067
:1001E000B1F12001BFF4F7AF090728BFA0E80C5018
:1001F00048BF0CC05DF804EB890028BF40F8042B11
:1002000008BF704748BF20F8022B11F0804F18BF7D
:1002100000F8012B7047704770477047754600F033
:100220002BF8AE4605006946534620F00700854688
:1002300018B020B5FFF7B6FFBDE820404FF000062C
:100240004FF000074FF000084FF0000BAC46ACE851
:10025000C009ACE8C009ACE8C009ACE8C00921F0AD
:1002600007018D46704710B50446AFF30080204665
:10027000BDE81040FFF781BF004870471000002024
:1002800001491820ABBEFEE72600020070470000BF
:10029000B0B5044600688168C90709D0816821F0BB
:1002A0000101816000F084FE21688968C90701D1DD
:1002B0000020B0BD054603E020688068C007F7D085
:1002C00000F076FE401B0328F6D320688068C00744
:1002D000F2D0A06A40F01000A062E06A40F0010095
:1002E000E0620120B0BD000080B50146406A826A2C
:1002F00012F0500F04D0006A026B0846904780BD90
:100300000168826A42F400728262896801F46021A5
:10031000B1F5602F01D1017B11B100F047FA80BD2A
:10032000816A21F480718162816AC904F5D4816A8D
:1003300041F00101816200F039FA80BD80B5406A68
:10034000816A41F040018162C16A41F00401C162E9
:1003500000F04EFA80BD000080B5406A00F046FA19
:1003600080BD0000B0B582B0044600200190216835
:100370008A68D2073DD1886840F00100886040F269
:100380000000C2F2000000684DF68361C4F21B3128
:10039000A0FB0101880C00BF0190019810B10198E9
:1003A0000138F9E700F004FE21688968C9071CD10B
:1003B000054603E020688068C00719D100F0F8FD09
:1003C000401B0328F6D320688068C007F2D1A06ADA
:1003D00040F01000A062E06A40F00100E0620020FE
:1003E00084F82400012002B0B0BD002002B0B0BDEE
:1003F000002002B0B0BD000080B540F6A020C2F2DF
:10040000000000F001FB40F6702040F27001C2F2E3
:100410000000C2F200014FF4A07200F0C7F840F6ED
:10042000F830C2F2000001F0C3FB80BD70B500F0EF
:1004300061F86FF027012828B8BF4FF4167146F213
:10044000676C40F2705E40F6885308440021C6F2A3
:10045000666CC2F2000E4022C2F20003441884FB14
:100460000C56351205EBD67505EB8505A4EBC514C6
:100470003EF81440A4F5006404EB5474A2EBE404C9
:1004800024EAE4747F2CA8BF7F245C540131A029A6
:10049000E4D170BDFEE7000080B540F6D020C2F286
:1004A000000000F021FB80BD80B540F61430C2F2A0
:1004B000000000F019FB80BDB0B5D0E900CED0E956
:1004C0000F40012505FA00F060600846CCF80430C2
:1004D000BEF1100F04BF10460A46CCF80800CCF855
:1004E0000C20B0BD70470000EFF3108072B600BF63
:1004F000FEE7000080B540F2705CC2F2000CACF187
:10050000020E002140F6FF734FF420703EF8022FD8
:100510008A4288BF11469A4238BF13460138F5D146
:1005200058184FF6815140080CF10202CFF6FF71C6
:1005300004E000BF013102F1020209D232F8023CAC
:100540009842F7D913889842F4D801F5207080BDFD
:10055000002080BD90F82420012A04BF02207047AB
:100560000123026880F824309368DB070AD142F245
:10057000004CC4F2010CDCF80834624508BF13F0EB
:10058000010309D0816A41F020018162012100222A
:1005900080F8242008467047DCF80430096823F40A
:1005A0007023194351600021F1E70000F0B58DB0D0
:1005B0000F46044601A830211546FFF705FE94F8C2
:1005C0002400012801D1022666E0012084F82400DD
:1005D00042F60000C4F201000190806800F460203F
:1005E000B0F5602F09D12046FFF7BCFE064668B182
:1005F00096B1002084F824004EE0A06A012640F065
:100600002000A062002084F8240045E001A8FFF744
:10061000A9FE0646002EECD12168A06A4FF6FE42E4
:10062000CFF6EF72104000F58070A0624868400578
:1006300004D5A06A012262F30D30A062002084F884
:100640002400E062206A40F2E922C0F6000240F293
:10065000593340F23D3C00F1280EC0F60003C0F6CD
:10066000000C8EE80C106FF002020A608A682B46BC
:1006700042F480728A604C313A4600F03BFB2068BD
:10068000816801F460228168B2F5602F14BF41F4E3
:10069000801141F4A001816030460DB0F0BD000032
:1006A00070B581B00022009290F82420012A01D177
:1006B000022177E04A680123062A80F8243005D811
:1006C00003686FF0040C03F1340E0AE003680C2A8F
:1006D00087BF03F12C0E6FF0400C03F1300E6FF06A
:1006E000220C02EB8202DEF8005062441F230C68E9
:1006F000934025EA030304FA02F21A43CEF80020DD
:100700000E68D0F800E006EB46051024092E88BFDD
:100710001E3D88BF0C245EF8042007238968AB4087
:100720009A43A94011434EF8041026F001014FF0FE
:10073000000C10294FF0000132D142F20041C4F206
:1007400001018E4505D0816A41F0200181620121BD
:1007500026E08968090222D4DEF80810102E41F440
:100760000001CEF808101AD140F20001C2F20001D7
:1007700009684DF68362C4F21B32A1FB0212910C90
:1007800001EB810149000091009941B100990139C3
:100790000091009900294FF00001F7D100E00021FD
:1007A00080F824C0084601B070BD0000006842F225
:1007B0000041C4F20101884218BF704740F2700C3A
:1007C00040F270520020C2F2000CC2F2000200BFE0
:1007D0005CF8203002EB800122F8203001301B0C45
:1007E000B0F5A07F4B80F3D1704700007047000048
:1007F00070470000002804BF01207047F0B581B0A9
:100800000746044657F8280F30B90020E06284F804
:100810002400204600F07CF82046FFF739FDA26A4C
:10082000A16A002808BF12F0100205D041F01001A3
:100830000120396001B0F0BD41F202129143023152
:10084000A162E169D4E9013241EA0305511EB1FA1E
:1008500081F149091346B2F5807F18BF0B02267D4E
:10086000217B012E45EA410C13D141B1A16A41F02F
:100870002001A162E16A41F00101E16209E0A169A0
:100880004EF20006CFF6FF7606EB4131194341F4F4
:1008900000632168B2F5807F4E6826F4694643EA1A
:1008A00006034B608B684FF2FD76CFF6E17603EAE4
:1008B000060343EA0C038B6001D0012A06D12269AA
:1008C0000023CFF6F07303EB025200E00022CB6A64
:1008D00023F470031A43CA62896840F6FE62CFF6B9
:1008E0001F721140614506D10021E162A16A012217
:1008F00062F301019DE7A06A40F0100020F00200C1
:10090000A06254F82C0F40F001010120274690E727
:10091000B0B586B00446006842F60001C4F2010199
:1009200088424FF00001CDE90411CDE9021147D012
:1009300042F20041C4F20101884262D141F2180042
:10094000C4F20200016841F400710160016801F421
:10095000007101910199016841F004010160006892
:1009600002A900F0040001900198022002900320E7
:10097000039040F60000C4F2010000F005FA40F6D2
:10098000D0250820C2F20005C4F202000021C5E90A
:10099000000105F1080080224FF400734FF4006C51
:1009A0004FF0200E80E80E502846E96100F05EF915
:1009B000002818BFFFF798FD25626C6206B0B0BD35
:1009C00041F21800C4F20200016841F48061016044
:1009D000016801F4806101910199016841F004010D
:1009E0000160006802A900F0040001900198022053
:1009F00002900320039040F60000C4F2010000F0D2
:100A0000C3F906B0B0BD000010B5044690F824004C
:100A1000012804BF022010BD012084F824002046D4
:100A2000FFF7A0FC18B1002184F8241010BD42F299
:100A3000044C2168A26AC4F2010C40F201339A43CB
:100A40000CF57F7E02F580727145A26207D0A26A22
:100A500022F48012A2624A68520519D41DE0DCF823
:100A6000002012F4702FF2D0A26A42F60003C4F202
:100A7000010342F480129942A26205D042F2004280
:100A8000C4F20102914208D1DCF80020520504D5DD
:100A9000A26A012363F30D32A262A36A0022DB047F
:100AA0004FF0000344BFE36A23F00603E36284F8D7
:100AB00024206FF002020A608A6802F46022B2F514
:100AC000602F0BD1714504D08A6842F4A0028A607D
:100AD00010BDDCF8002012F4702FF5D08A6842F4C3
:100AE00080128A6010BD000010B50168D0E90FCEF9
:100AF000DCF800200B685C0727D5042404FA0EF408
:100B0000144022D00A68920603D40A6822F0040234
:100B10000A6002682F21C4F202018A4240F20401F5
:100B2000C4F202015ADD3023C4F202039A426DD0AE
:100B30004423C4F202039A426BD05823C4F2020346
:100B40009A426BD14FF4802370E09C072AD502248F
:100B500004FA0EF4144025D00A68920606D40A68F6
:100B600022F00A020A60012180F8211002682F2178
:100B7000C4F202018A4240F20401C4F2020139DDEA
:100B80003023C4F202039A4256D04423C4F2020333
:100B90009A4254D05823C4F202039A4254D14FF4DB
:100BA000003359E01B0758BF10BD082303FA0EF3AA
:100BB0001A4012D00A6822F00E020A60012101FADE
:100BC0000EF2CCF80420816380F82110016B002222
:100BD000002980F8202018BF884710BD0823C4F2E0
:100BE00002039A4218D01C23C4F202039A4215D180
:100BF00040231BE00823C4F202039A4222D01C23A4
:100C0000C4F202039A421FD1202325E04FF48063EF
:100C10000CE04FF4804309E0042307E001F168048D
:100C20004FF08063A24208BF4FF480030B60C16A9B
:100C30000029D2D0884710BD4FF400730CE04FF468
:100C4000005309E0022307E001F168044FF000734C
:100C5000A24208BF4FF400130B60816A00220029F2
:100C600080F82020B9D0884710BD00000146002838
:100C70004FF0010008BF70472DE9F043D1F800C0E4
:100C80004FF6F873CBF6FD734CF6CD426344CCF6C9
:100C9000CC42A3FB02236FF0030707EA930300276C
:100CA00001F10C09C4F20207D1E9012E99E87002A2
:100CB000D1F81C80C1E90F73022381F82130DCF8E0
:100CC000003043F6F077BB431A4342EA0E02224358
:100CD0002A43324342EA090242EA0802CCF80020E1
:100CE00000228A6381F8210081F820200020BDE8DD
:100CF000F043704710B5044690F82000012820D03A
:100D0000012084F8200094F82100012816D1022047
:100D100084F821000020A063D4F800C0DCF80000B3
:100D200020F00100CCF800002046FFF7C5FB20684A
:100D3000E26A01683AB141F00E010AE0002084F84D
:100D40002000022010BD21F004010160016841F083
:100D50000A010160016841F001010160002010BD3D
:100D6000B0B5044600F024F9054640F20400C2F292
:100D700000000078611C18BF044400BF00F018F99F
:100D8000401BA042FAD3B0BD2DE9F04F84B00E68ED
:100D90000290002E00F0038140F20C4E40F200471A
:100DA00041F200420298C4F2010EC4F20107C4F2FB
:100DB00001020423002401254FF0000A4FF000092E
:100DC000904208BF032300930AE000BF01250E688C
:100DD0000AF1010A36FA0AF204F1040400F0DF8095
:100DE00005FA0AFB16EA0B08F1D04A684FF6FF73C2
:100DF000C1F210039A4211DC122A54D80298DFE89B
:100E000002F0350A434753535353535353535353E9
:100E10005353534A4E00D1F80C9045E04FF6FF7300
:100E2000C1F221039A4210DC0023C1F2110302989F
:100E30009A421BD00023C1F212039A4216D000231B
:100E4000C1F221039A4211D02EE00023C1F2220305
:100E500002989A420AD00023C1F231039A4205D087
:100E60000023C1F232039A421ED100BF8A6842B108
:100E7000012A14BFC0F814B0C0F810B04FF0080930
:100E800012E04FF004090FE0CA6802F108090BE014
:100E90004FF0000908E0CA6802F1040904E0CA68DA
:100EA00002F10C0900E0029822460346B8F5807F63
:100EB00024BF203A04331D684FF00F0C0CFA02F6E1
:100EC000B54309FA02F22A431A60CA79D2067FF5BD
:100ED0007DAF41F21803CDF80490C4F202031A6802
:100EE000F34642F001021A601A684FEA9A0E02F0C5
:100EF00001020392039AA7F57E72B94652F82E308A
:100F000004F00C0740F600060CFA07F5C4F20106DF
:100F1000B04223EA050C10D040F60043C4F20103AE
:100F200098420CD041F20003C4F201039842009BA6
:100F30004FF0010508BF022303E0002300E0012376
:100F40000125BB4043EA0C0342F82E304E684F4661
:100F5000F202D9F8082054BF22EA080242EA080245
:100F6000DE46DDF80490BA60DEF80020B30254BF1C
:100F700022EA080242EA0802CEF800207A68B303A7
:100F800054BF22EA080242EA08027A603A68F30390
:100F900054BF22EA080242EA08023A6017E704B0A6
:100FA000BDE8F08F002A08BF090401617047000006
:100FB00040F68450C2F200000068704740F204001E
:100FC00040F68451C2F20000C2F2000100780A68C3
:100FD000104408607047000080B542F20000C4F27F
:100FE0000200016841F010010160032000F066F882
:100FF0000F2000F005F800F02BF8002080BD000065
:10100000B0B540F20402C2F2000240F200011278D0
:10101000C2F200014FF47A730968B3FBF2F204469E
:10102000B1FBF2F1084600F02BFD0F2C4FF001054B
:101030000CD858B94FF0FF3021460022002500F0AF
:101040002DF840F20800C2F2000004602846B0BD4E
:1010500082B041F21800C4F202000168022241F09D
:1010600001010160016801F00101019101994168EC
:1010700041F080514160406800F08050009000983D
:101080000420C4F20100016862F31A61016002B039
:101090007047000080B501F017FD80BD70B51446A3
:1010A0000D46064601F020FD2946224601F09AF839
:1010B0000146304601F020FD70BD000080B501F012
:1010C0002DFD80BD2DE9F04182B00446007841F24B
:1010D0001C06C007C4F202064ED03068C0000BD414
:1010E00030684FF0010840F080503060306800F008
:1010F00080500190019801E04FF0000847F200078E
:10110000C4F200073868C00512D4386840F4807013
:101110003860FFF74DFF05463868C00508D4FFF773
:1011200047FF401B6428F7D9032002B0BDE8F081D7
:10113000706810F4407012D0616801F44071884208
:101140000DD0706840F24042C4F24222012320F4E4
:10115000407113600023C0071360716029D170686B
:10116000616820F440700843B8F1000F706003D04C
:10117000306820F0805030602068810707D556F82D
:10118000181CA26821F44041114346F8181CC006FF
:1011900003D4002002B0BDE8F08156F8180CE168D5
:1011A00020F48000084346F8180C002002B0BDE887
:1011B000F081FFF7FDFE054641F288377068800731
:1011C000CDD4FFF7F5FE401BB8424FF00300F5D930
:1011D000ECE700002DE9F04381B0002800F08780A3
:1011E00042F20008C4F202080446D8F800000D4696
:1011F00000F0070088420CD2D8F8000020F0070069
:101200002843C8F80000D8F8000000F00700A84202
:101210006DD1206841F204098107C4F2020917D593
:10122000410705D5D9F8001041F4E061C9F8001074
:10123000010705D5D9F8001041F46051C9F8001034
:10124000D9F80010A26821F0F0011143C9F800108C
:10125000C00745D1D8F8000000F00700A8420CD91B
:10126000D8F8000020F007002843C8F80000D8F89C
:10127000000000F00700A84239D12068410707D5D7
:10128000D9F80010E26821F4E0611143C9F80010B8
:10129000000708D5D9F80000216920F4605040EA21
:1012A000C100C9F8000000F04DF8D9F8001042F66E
:1012B0002A42C1F30311C0F60002515C40F2000261
:1012C00020FA01F140F20800C2F200000068C2F208
:1012D00000021160FFF794FE002001B0BDE8F0832A
:1012E0006068012807D159F8041C89030CD4012037
:1012F00001B0BDE8F08359F8041C022802D189012D
:10130000F5D501E08907F2D5D9F8001021F00301E5
:101310000843C9F80000FFF74BFE064641F2883744
:10132000D9F80000616800F00C00B0EB810F91D09B
:10133000FFF73EFE801BB842F2D9032001B0BDE8A2
:10134000F083000041F2040CC4F2020CDCF800301F
:1013500003F00C00082841F20020C0F27A0018BF08
:101360007047C3F383420AA18A5CD90305D440F6CF
:101370000010C0F23D0050437047DCF8001008A395
:10138000C1F34041595C5043B0FBF1F0704700BFDE
:1013900002030405060708090A0B0C0D0E0F1010B6
:1013A000010200002DE9F04182B0002800F0C48065
:1013B0000446007841F20006C007C4F2020643D09A
:1013C000706800F00C00042817D0706800F00C0062
:1013D000082802D17068C0030FD465689DB1B5F5C7
:1013E000803F06D03068B5F5A02F0DD140F48020A5
:1013F0003060306840F480300CE03068800323D5E2
:10140000606808BB98E0306820F480303060306855
:1014100020F480203060FFF7CBFD002D054610D072
:101420003068800310D4FFF7C3FD401B6428F7D950
:1014300008E100BFFFF7BCFD401B64284FF003002C
:1014400077D830688003F5D42078800718D5706885
:1014500010F00C0F07D0706800F00C00082826D19F
:101460007068C00323D43068800702D52069012842
:1014700062D13068616920F0F80040EAC100306054
:10148000207800073DD5A06938B30020C4F242207F
:101490000121C0F88014FFF78BFD0546706A8007B4
:1014A0002DD4FFF785FD401B0228F7D9CAE020693B
:1014B000002840F20000C4F2422000F09A8001218E
:1014C0000160FFF775FD054630688007D1D4FFF74E
:1014D0006FFD401B0228F7D9B4E00020C4F242207F
:1014E0000021C0F88014FFF763FD0546706A80078D
:1014F00007D5FFF75DFD401B0228F7D9A2E000F0F9
:1015000089FE207840071BD4E5698DB1706800F032
:101510000C0008284CD1012D0ED07068216A00F40F
:1015200080328A4208D1616A00F47010884203D187
:10153000002002B0BDE8F081012002B0BDE8F081DA
:10154000F069C0000BD4F0694FF0010840F0805002
:10155000F061F06900F080500190019801E04FF0D7
:10156000000847F20007C4F200073868C00510D42D
:10157000386840F480703860FFF71AFD054600BFF8
:101580003868C00505D4FFF713FD401B6428F7D960
:1015900058E0E568002D3DD0012D05D0306A052DBD
:1015A00039D140F004003062306A40F0010038E088
:1015B0000027C4F2422700203866FFF7F9FC022D0D
:1015C00005460BD13068800154D5FFF7F1FC401B74
:1015D00002284FF00300F5D9ABE700BF3068800167
:1015E000A6D5FFF7E5FC401B02284FF00300F5D914
:1015F0009FE700210160FFF7DBFC054630688007AC
:101600007FF53EAFFFF7D4FC401B02284FF00300EC
:10161000F4D98EE7306A20F001003062306A20F0A1
:1016200004003062FFF7C4FC002D054641F2883704
:1016300014D000BF306A800713D4FFF7B9FC401BF9
:10164000B842F7D9032002B0BDE8F081FFF7B0FC43
:10165000401BB8424FF003003FF66BAF306A800783
:10166000F4D4B8F1000F3FF44FAFF06920F0805090
:10167000F06149E7206AB0F5803F05D17168A26842
:1016800021F40031114371607168626A21F47411B0
:1016900010430843706001203866FFF789FC044658
:1016A000306880013FF544AFFFF782FC001B022841
:1016B0004FF00300F4D93CE77047000070B538B133
:1016C0000446406A30B10020206104F1140007E0B4
:1016D000012070BD6068B0F5827F03D004F11C006A
:1016E000002101600026A66294F8510020B920462E
:1016F00084F8506000F038F8022084F8510094E833
:10170000071001F48271036802F4044223F04003DD
:101710000360236911440CF40062114403F00202D7
:101720006369114403F00102A369E569114403F4FC
:101730000072114405F03802256A114405F0800258
:10174000A56A114305F4005211430160042101EA26
:1017500013414160C16921F40061C16101206665E6
:1017600084F85100304670BD70B586B0002604463E
:1017700040F600000596CDE90366C4F20100216839
:1017800000F520529142029601D006B070BD41F2A0
:101790001801C4F202010A6842F480520A600A6821
:1017A00002F480520192019A0A6842F004020A602F
:1017B000096801F0040101910199A021029102211F
:1017C00003910321059102A9FFF7DEFA40F61435D3
:1017D0003020C2F20005C4F202001021802285E808
:1017E00043002846C5E90326C5E90566EE61FFF713
:1017F0003DFA002818BFFEF777FEA5646C6206B0BC
:1018000070BD00002DE9F04182B01D4616460F461E
:101810000446FFF7CDFB94F8511001290DD1804605
:10182000002F4FF0010018BF002E02D102B0BDE81A
:10183000F08194F85000012803D1022002B0BDE8E5
:10184000F081012084F85000032084F8510000202A
:1018500060652763A686E686A063A087E087A16807
:10186000C4E91000B1F5004F08D12068016821F0EB
:1018700040010160016841F4804101602068016815
:10188000490603D4016841F0400101606168731E9C
:10189000E268B1FA81F1B3FA83F349095B09B2F561
:1018A000006F41EA030124D139B1216B0988C1607D
:1018B000B81C2063E08E0138E086E08E002846D018
:1018C0006E1C09E0216B31F8022BC2602163E08EAF
:1018D0000138E086E08ED0B3206881688907F1D4B2
:1018E000FFF766FB002EF5D0A0EB0800A842F1D36D
:1018F00023E039B139780173206B01302063E08E29
:101900000138E086E08E10B36E1C0AE0216B097886
:101910000173206B01302063E08E0138E086E08E99
:10192000A8B1206881688907F0D4FFF741FB002E39
:10193000F5D0A0EB0800A842F1D3012084F85100B3
:10194000002084F85000032002B0BDE8F08120465A
:101950002946424600F0C4FC00281CBF20206065D8
:10196000A06838B9002001902068C16801918068A2
:1019700001900198012084F85100002084F8500063
:10198000606D002818BF012002B0BDE8F0810000A2
:10199000B0B5044690F8510001280AD100294FF053
:1019A000010018BF002A00D1B0BD94F850000128F2
:1019B00001D10220B0BD012084F850000320002393
:1019C00084F8510063652163A286E286A363C4E9BB
:1019D0001033A387E387A068B0F5004F08D12068D3
:1019E000016821F040010160016841F4804101601B
:1019F000A06C42F2652C42F2712E42F24125C0F6F3
:101A0000000CC0F6000EC0F600052268216BC0E98C
:101A10000AECC0E90C53E38E0C32FFF76BF940B1CE
:101A2000606D40F010006065002084F850000120D7
:101A3000B0BD21680868400603D4086840F0400043
:101A40000860002084F850004A6842F020024A6092
:101A50004A6842F002024A60B0BD0000006843F2EA
:101A60000001C4F20101884218BF704740F680505F
:101A7000C2F20000002101707047000070470000B2
:101A800080B500F057FE80BD10B590F83C20012ACB
:101A90004FF0020231D0012380F83C3080F83D2025
:101AA0000268D2F804E0D2F808C00C682EF0700387
:101AB000234340F2FF74C4F20004A242536005DCE9
:101AC000B2F1804F0ED040F2004307E042F60043EF
:101AD000C4F201039A4205D040F60003C4F20003A9
:101AE0009A4204D149682CF0800319439160012186
:101AF000002280F83D1080F83C20104610BD000008
:101B0000002804BF0120704710B5044690F83D003E
:101B100028B9002084F83C00204600F01FF802207D
:101B200084F83D002068211D00F076FE012084F835
:101B3000460084F83E0084F83F0084F8400084F8B2
:101B4000410084F8420084F8430084F8440084F89B
:101B5000450084F83D00002010BD000082B0006800
:101B600040F20041C4F20001884211D0B0F1804F30
:101B70001BD141F21C00C4F20200016841F00101D6
:101B80000160006800F001000190019802B0704708
:101B900041F21C00C4F20200016841F00201016040
:101BA000006800F002000090009802B0704700004A
:101BB00090F83D1001291CBF01207047022180F8D8
:101BC0003D10006840F2FF71C4F20001884205DC5C
:101BD000B0F1804F0ED040F2004107E042F60041E4
:101BE000C4F20101884205D040F60001C4F20001B0
:101BF000884206D1816801F00701062904BF002050
:101C00007047016841F00101016000207047000049
:101C100010B5044690F83C0001284FF0020008BFC0
:101C200010BD012284F83C2084F83D0020684FF666
:101C3000777382689A4382600A684F2A0FDC1F2AF2
:101C400022DD202A23D0302A21D0402A4DD14B68D2
:101C5000CA68194600F012FF206840213BE06F2A55
:101C600017DDB2F5005F20D0B2F5805F2AD0702A70
:101C70003BD1D1E9012CCB68614600F02DFE2068F4
:101C8000816841F077011AE00AB1102A2DD111467E
:101C900021E0502A18D0602A27D14B68CA6819461B
:101CA00000F0FEFE2068602115E0D1E9012CCB6830
:101CB000614600F011FE2068816841F48041816036
:101CC00000200BE0002009E04B68CA68194600F0CC
:101CD000D5FE2068502100F00BFE0020012184F881
:101CE0003D10002184F83C1010BD0120F6E70000F3
:101CF00080B586B00068B0F1804F4FF00000CDE9AC
:101D00000400CDE9020001D006B080BD41F2180008
:101D1000C4F20200016841F004010160006802A9F8
:101D200000F004000190019801200290022003902D
:101D3000059040F60000C4F20100FFF725F806B058
:101D400080BD0000B0B5044690F83C00012804BFF7
:101D50000220B0BD0D464FEAB2010120032984F8EC
:101D60003C0037D8DFE801F0020A12222068294639
:101D700000F0C6FD206850F8181F0EE020682946C4
:101D800000F0EEFD206850F8181F16E02068294684
:101D900000F01AFE206850F81C1F41F00801016095
:101DA000016821F00401016029690FE020682946DB
:101DB00000F03EFE206850F81C1F41F400610160F5
:101DC000016821F4806101602969090202681143F8
:101DD00001600020002184F83C10B0BD002804BF41
:101DE0000120704710B5044690F83D0028B9002046
:101DF00084F83C00204600F01FF8022084F83D00E3
:101E00002068211D00F008FD012084F8460084F8B8
:101E10003E0084F83F0084F8400084F8410084F8D4
:101E2000420084F8430084F8440084F8450084F8B4
:101E30003D00002010BD000070470000B0B5044612
:101E400041B1082909D0042914BF04F1410004F16B
:101E50003F0004E004F13E0001E004F1400000789E
:101E600001281CBF0120B0BD022041B1082909D0C2
:101E7000042914BF84F8410084F83F0004E084F88A
:101E80003E0001E084F84000206842F6444501220B
:101E9000C4F2010500F00EFD2068A5F1440188425E
:101EA00003D1296841F40041296040F2FF71C4F276
:101EB0000001884205DCB0F1804F0ED040F20041B5
:101EC00007E042F60041C4F20101884205D040F625
:101ED0000001C4F20001884206D1816801F00701C7
:101EE000062904BF0020B0BD016841F00101016076
:101EF0000020B0BDFEE7000080B584B040F6702041
:101F000042F200420021C2F20000C4F201024FF48A
:101F10000023CDE90211CDE9001101730175C36100
:101F2000C0E90021816001210161FEF763FCD0B9A5
:101F30004FF4E020039040F67020C2F2000003A9A5
:101F4000FEF708FB78B90120CDE9000000200290DF
:101F500040F67020C2F200006946FEF7A1FB00289F
:101F600004BF04B080BDFEF7BFFA0000B0B584B076
:101F700040F6A02042F600010024C2F20000C4F2A4
:101F800001014FF4602201250394CDE9014404735B
:101F90000475C261C0E9001484600561FEF72AFC83
:101FA00068B940F6A020C2F2000001A9CDE90155B0
:101FB0000394FEF775FB002804BF04B0B0BDFEF724
:101FC00093FA000080B582B041F21400C4F202001E
:101FD0000168002241F0010101600068002100F069
:101FE0000100019001980B20FFF758F80B20FFF734
:101FF00051F80D2000210022FFF750F80D20FFF7C7
:1020000049F802B080BD000070B586B0002541F2ED
:102010001800CDE90455CDE90255C4F2020001686B
:1020200040F6004441F0040101600168C4F201047B
:1020300001F00401019101990168002241F00801B9
:102040000160006840F2034100F00800019001982F
:10205000204640F20346FEF7A5FF01200296CDE997
:1020600003050220059002A92046FEF78DFE06B06A
:1020700070BD000080B540F6583043F20001C2F256
:102080000000C4F201014FF48272002380E80E00C8
:1020900000F114014FF4007C4FF0080EC0E9033347
:1020A00081E808500A21C0E90833C0E90A31FFF786
:1020B00005FB002808BF80BDFEF716FA10B58EB0EC
:1020C00040F6B0300021C2F200004FF080423723CA
:1020D00040F2E7340D91CDE90B11CDE90911CDE9BD
:1020E0000711CDE90511CDE90311CDE90111C0E9D1
:1020F0000023C0E9021401618161FFF701FD98BB73
:102100004FF480500A9040F6B030C2F200000AA9A5
:10211000FFF77EFD40BB40F6B030C2F20000FFF793
:102120005DFE08BB40F6B0300024C2F2000008A9F2
:10213000CDE90844FFF7A8FCB0B960200190FA206F
:10214000CDE9020440F6B030C2F2000001A900223D
:102150000594FFF7F7FD38B940F6B030C2F2000041
:10216000FFF7C6FD0EB010BDFEF7BEF980B586B014
:1021700040F6F83040F200420021C2F20000C4F202
:10218000000240F2DB53CDE90411CDE90211CDE9A3
:102190000011C0E90021C0E9021301618161FFF76C
:1021A000AFFCC8B94FF48050029040F6F830C2F24C
:1021B000000002A9FFF72CFD70B92020009000203C
:1021C000019040F6F830C2F200006946FFF75CFC6F
:1021D000002804BF06B080BDFEF786F9FEE70000C8
:1021E000FEE7000000F0070080F00703042B28BF83
:1021F00004234FF0FF3C03380CFA03F338BF0020F0
:10220000994381400CFA00F022EA0000084370472D
:102210007047000081B040F20000C2F20000006888
:1022200044F6D351C1F26201A0FB0101480A0090BB
:1022300000BF0098411E00280091F9D101B07047FD
:1022400080B5406A01684A6822F003024A60416D25
:1022500041F010014165012180F85110FFF72CFA7F
:1022600080BD000080B5406AFFF708FC80BD00001B
:10227000B0B582B0446A0546FEF79AFE296809683F
:10228000890628D402462068416821F02001416077
:10229000416821F0020141602046642100F020F8ED
:1022A00018B1606D40F020006065A06838B900206A
:1022B00001902068C1680191806801900198002018
:1022C000E086012084F85100606D20B12046FFF7C0
:1022D000F3F902B0B0BD2046FFF7C0FB02B0B0BDBD
:1022E00070B582B00D461646022101222B460446E7
:1022F000009600F013F840B92046802100222B46BA
:102300000096002500F00AF820B1606D032540F02A
:1023100020006065284602B070BD00002DE9F0473E
:1023200082B00A9C984615460E468146FEF740FE4E
:10233000201A00EB0804FEF73BFE40F20001C2F257
:1023400000010968C1F3CB3161430191D9F8001054
:1023500089683140891BB1FA81F14909A94203D149
:10236000002002B0BDE8F087824608F1010709E0CD
:10237000D9F8000080683040801BB0FA80F0400936
:10238000A842EDD0002FF3D0FEF712FEA0EB0A001A
:10239000A04207D201980199002808BF0446481EB0
:1023A0000190E5E7D9E900014268B1F5827F22F0AA
:1023B000E00242600BD1D9F80810B1F5004F02D00D
:1023C000B1F5806F03D1016821F040010160D9F8B7
:1023D0002810B1F5005F07D1016821F400510160B8
:1023E000016841F400510160012089F8510000208A
:1023F00089F85000032002B0BDE8F08710B540F620
:102400000044C4F2010420464FF480610022FEF72C
:10241000C9FDC820FEF7A4FC20464FF480610122CC
:10242000FEF7C0FDC820FEF79BFC012000F0B6FBC4
:102430007820FEF795FC112000F0B0FBC820FEF7D5
:102440008FFCB12000F0AAFB012000F0CBFB2C2078
:1024500000F0C8FB2D2000F0C5FBB22000F09EFB71
:10246000012000F0BFFB2C2000F0BCFB2D2000F071
:10247000B9FBB32000F092FB012000F0B3FB2C204D
:1024800000F0B0FB2D2000F0ADFB012000F0AAFB16
:102490002C2000F0A7FB2D2000F0A4FBB42000F0BE
:1024A0007DFB072000F09EFBC02000F077FBA22000
:1024B00000F098FB022000F095FB842000F092FBD6
:1024C000C12000F06BFBC52000F08CFBC22000F0A7
:1024D00065FB0A2000F086FB002000F083FBC32090
:1024E00000F05CFB8A2000F07DFB2A2000F07AFBE4
:1024F000C42000F053FB8A2000F074FBEE2000F0B3
:1025000071FBC52000F04AFB0E2000F06BFBE020C1
:1025100000F044FB022000F065FB1C2000F062FB91
:10252000072000F05FFB122000F05CFB372000F07A
:1025300059FB322000F056FB292000F053FB2D20E0
:1025400000F050FB292000F04DFB252000F04AFB55
:102550002B2000F047FB392000F044FB002000F066
:1025600041FB012000F03EFB032000F03BFB10206C
:1025700000F038FBE12000F011FB032000F032FBFB
:102580001D2000F02FFB072000F02CFB062000F0A0
:1025900029FB2E2000F026FB2C2000F023FB292015
:1025A00000F020FB2D2000F01DFB2E2000F01AFB78
:1025B0002E2000F017FB372000F014FB3F2000F026
:1025C00011FB002000F00EFB002000F00BFB0220AE
:1025D00000F008FB102000F005FB362000F0DEFACA
:1025E000682000F0FFFA202000F0D8FA3A2000F02E
:1025F000D5FA052000F0F6FA292000F0CFFA642081
:10260000FEF7AEFB10BD00002DE9F04F81B005468E
:1026100040F60048002000219F227F23C4F20108D9
:10262000002600F05BF8404601210022FEF7BAFCCC
:10263000404602210122FEF7B5FC40F64040C2F2BE
:1026400000004CF6CD4BA5F10109A0F1010ACCF632
:10265000CC4B00BF06F00F0C4FF4A0710022574680
:102660004B460025A5FB0B40000900EB800002EB68
:10267000800000284FF0000004BF48F21040CFF661
:10268000FF70BCF1000F04BF48F21040CFF6FF709E
:10269000A02908BF4FF4FC6013F8014F402E08BF7B
:1026A0004FF4FC60A64208BF6FF01F0000BA000C98
:1026B000A7F80100023701350239A2F10102D1D198
:1026C00000F092F80136802EC4D14046012101224B
:1026D000FEF768FC01B0BDE8F08F0000F0B581B0F6
:1026E00007462A201C4616460D4600F057FA0020E1
:1026F00000F078FA384600F075FA002000F072FA1F
:10270000304600F06FFA2B2000F048FA002000F06D
:1027100069FA284600F066FA002000F063FA2046C5
:1027200000F060FA2C2000F039FA01B0F0BD000092
:1027300070470000B0B501380024B4EB106F1CBF27
:102740000120B0BD4EF21005CEF2000568604FF0DA
:10275000FF300F2100F0D0F90720AC602860204640
:10276000B0BD000080B5FEF729FC80BD70B594B007
:102770000AAC20462821FDF727FD01200E901020ED
:10278000002502260F904FF440100A96CDE91165FE
:10279000139020460995CDE90755CDE90555CDE9BA
:1027A0000355CDE90155FEF7FDFDC0B90F20CDE978
:1027B00005064FF480600795CDE9080505A80221BC
:1027C000FEF708FD58B9022001904FF480400390B5
:1027D00001A8FEF777FC002804BF14B070BDFDF718
:1027E00083FE00007047000010B540F68054C2F22E
:1027F00000040120207040F6583040F64041C2F2FB
:102800000000C2F200014FF4A072FFF7C1F800BF50
:1028100020780028FCD110BD10B540F2FF7E03687F
:10282000C4F2000E42F6004C7045C4F2010C05DC07
:10283000B0F1804F0AD040F2004203E0604505D07D
:1028400040F60002C4F20002904203D14A6823F02D
:1028500070031343704505DCB0F1804F0AD040F29D
:10286000004203E0604505D040F60002C4F20002D9
:10287000904203D1CA6823F44073134323F08002CB
:102880004B69D1F800E08C681A4360450260C4626D
:10289000C0F828E002D10969CCF83010012141616B
:1028A0000169C90708BF10BD016921F0010101617B
:1028B00010BD000080B501F01F014FF0010CD0F8F1
:1028C00020E00CFA01F32EEA03030362036A02FA22
:1028D00001F11943016280BDD0F808C011432CF406
:1028E0007F4C41EA032141EA0C01816070470000FE
:1028F000826822F07002114341F007018160704745
:1029000070B5026A036A42F6004E23F001030362C7
:10291000456883690C688E6823F0730322F0020215
:10292000C4F2010E43EA040C704542EA060208D0E4
:1029300070450ED04560C0F818C049684163026216
:1029400070BDCB6822F00C0223F004031A437045DB
:10295000F0D125F44073D1E9056533431D43E9E720
:1029600070B5026A036A42F6004E23F01003036258
:10297000456883690C688E6823F4E64322F02002E0
:10298000C4F2010E43EA042C704542EA061208D054
:10299000704510D04560C0F818C049688163026274
:1029A00070BDCB686FF0400422F0C00204EA03134C
:1029B0001A437045EED125F44063D1E9056543EA39
:1029C000860343EA8505E5E770B5026A036A42F6C5
:1029D000004E23F4807303624568C3690C688E68F7
:1029E00023F0730322F40072C4F2010E43EA040CD4
:1029F000704542EA062208D0704510D04560C0F804
:102A00001CC04968C163026270BDCB6840F2FF44DC
:102A10001B0222F44062A3431A437045EED125F411
:102A20004053D1E9056543EA061343EA0515E5E796
:102A3000B0B5D0F820E0026A22F480520262446805
:102A4000C3690A6823F4E6438D6843EA022C42F620
:102A500000432EF40052C4F20103984242EA0533C7
:102A600004D14A6924F4804545EA82144460C0F8E0
:102A70001CC0496801640362B0BD0000D0F820C0EA
:102A8000036A23F001030362836923F0F00343EA3E
:102A900002122CF00A0319438261016270470000A0
:102AA000D0F820C0036A23F010030362836923F483
:102AB000704343EA02322CF0A00343EA0111826121
:102AC00001627047FEE70000002848BF704700F031
:102AD0001F01012202FA01F14EF200124009CEF26A
:102AE000000242F8201070474EF60C50CEF2000063
:102AF0000068C0F3022070474EF6145300F00F0236
:102B0000CEF2000309011A4400F16043B0F1FF3F27
:102B1000C8BF03F564421170704700004EF60C51B7
:102B2000CEF200010A684FF6FF031A4060F30A2252
:102B300042F0806040F0FD7008607047FEF74CFA8C
:102B4000FFF714FEFFF760FAFFF73CFAFFF792FA7F
:102B5000FFF7D2F9FFF70AFAFFF7B0FAFFF706FB23
:102B600040F6B030C2F200000021FFF767F9FDF730
:102B700043FC40F60040C4F2010001210122FEF7AF
:102B800011FAFFF73BFC40F68854C2F2000400BF84
:102B9000FDF74CFC2046FFF737FDF9E710B582B092
:102BA00040F60044C4F201048DF8070020460121DC
:102BB0000022FEF7F7F9204602210022FEF7F2F983
:102BC00040F65830C2F200000DF1070101226423E3
:102BD000FEF718FE204601210122FEF7E3F902B0BC
:102BE00010BD000010B582B040F60044C4F20104EC
:102BF0008DF80700204601210022FEF7D3F9204678
:102C000002210122FEF7CEF940F65830C2F2000050
:102C10000DF1070101226423FEF7F4FD2046012196
:102C20000122FEF7BFF902B010BD00000000000055
:102C3000000001020304060708090000602C0008D8
:102C4000000000201000000028010008702C00087F
:102C500010000020181400004401000800000000CB
:102C600000127A00010000001000000000000000C7
:04000005080000ED02
:00000001FF
