:020000040800F2
:10000000203B002091010008252C00082D29000824
:10001000212C00084108000871370008000000008A
:100020000000000000000000000000004133000854
:10003000CD0A000800000000552C000841340008DB
:10004000AB010008AB010008AB010008AB010008E0
:10005000AB010008AB010008AB010008AB010008D0
:10006000AB010008AB010008AB010008810A0008E1
:10007000AB010008910A0008AB010008AB010008C1
:10008000AB010008AB010008AB010008AB010008A0
:10009000AB010008AB010008AB010008AB01000890
:1000A000AB010008AB010008AB010008AB01000880
:1000B000AB010008AB010008AB010008AB01000870
:1000C000AB010008AB010008AB010008AB01000860
:1000D000AB010008AB010008AB010008AB01000850
:1000E000AB010008AB010008AB01000800F002F80A
:1000F00000F03FF80AA090E8000C82448344AAF183
:100100000107DA4501D100F034F8AFF2090EBAE880
:100110000F0013F0010F18BFFB1A43F0010318473B
:10012000C0460000E0460000103A24BF78C878C1FD
:10013000FAD8520724BF30C830C144BF04680C60ED
:10014000704700000023002400250026103A28BF35
:1001500078C1FBD8520728BF30C148BF0B60704739
:10016000752900F08380002070471FB51FBD10B5B2
:1001700010BD00F060F91146FFF7F7FF03F034FB04
:1001800000F07EF903B4FFF7F2FF03BC00F086F93C
:100190000948804709480047FEE7FEE7FEE7FEE71B
:1001A000FEE7FEE7FEE7FEE7FEE7FEE70448054957
:1001B000054A064B70470000C1340008ED000008F6
:1001C00020350020203B0020203700202037002051
:1001D0000FB41CB50C0007AA009001D02044401EAB
:1001E000074B7B4469460190069800F004F9002C07
:1001F00003D06946002000F011F91CBC5DF814FB27
:10020000410200002DE9F0410E4604460020206224
:100210002046E168884730B3252805D0D4E901217C
:100220009047206A401CF2E7E16820460027884793
:10023000050018D0A5F14100192802D820354FF447
:1002400000673246294620462760FFF789FF40B104
:10025000012804D0F61D26F007060836D8E7361D1B
:10026000D6E72846DAE7206ABDE8F0812DE9F041BB
:100270000646002410687529314616A510D0AFF344
:100280000080002802DA404213A507E031688A079F
:1002900001D512A502E0490704D511A5012401E00A
:1002A000AFF3008000210A2206F1240709E0B0FB29
:1002B000F2FCB0FBF2F302FB1C003030785418461D
:1002C000491C0028F3D123462A463046BDE8F041B8
:1002D00000F032B8000000002D0000002B000000EC
:1002E000200000004FF0000200B5134694469646E9
:1002F000203922BFA0E80C50A0E80C50B1F1200139
:10030000BFF4F7AF090728BFA0E80C5048BF0CC0E6
:100310005DF804EB890028BF40F8042B08BF704744
:1003200048BF20F8022B11F0804F18BF00F8012BB6
:1003300070477047704770472DE9F0470D46994662
:100340009246044600F124080168880604D5E06955
:1003500021F01001216000E00120A84201DD471BCF
:1003600000E00027A1697A1902EB0900081AA061D0
:100370002078C00602D42046AFF30080002608E0B3
:10038000D4E901211AF806009047206A401C761C27
:1003900020624E45F4DB2078C0060AD52046AFF334
:1003A000008006E0D4E9012130209047206A401CFB
:1003B0002062381EA7F10107F4DC07E0D4E901212F
:1003C00018F805009047206A401C2062281EA5F1FD
:1003D0000105F3DC2046AFF300802078000602D54B
:1003E0000220BDE8F0870120FBE7000001694A1CFC
:1003F00002610878704700B58FB0CDE90131002166
:10040000059105497944CDE9031011466846FFF787
:10041000F9FE0FB000BD0000E5FFFFFF0A6802F81B
:10042000010B0A607047D1E900239A4202D2531CA3
:100430000B6010707047754600F02CF8AE46050052
:100440006946534620F00700854618B020B5FFF7EF
:10045000ADFEBDE820404FF000064FF000074FF022
:1004600000084FF0000BAC46ACE8C009ACE8C0098E
:10047000ACE8C009ACE8C00921F007018D4670471F
:1004800010B50446AFF300802046BDE81040FFF7EA
:1004900079BE00000048704718000020014918206C
:1004A000ABBEFEE72600020070470000B0B5044670
:1004B00000688168C90709D0816821F00101816065
:1004C00001F000FA21688968C90701D10020B0BD98
:1004D000054603E020688068C007F7D001F0F2F914
:1004E000401B0328F6D320688068C007F2D0A06ABA
:1004F00040F01000A062E06A40F00100E0620120DC
:10050000B0BD000080B50146406A826A12F0500F0B
:1005100004D0006A026B0846904780BD0168826A79
:1005200042F400728262896801F46021B1F5602FA3
:1005300001D1017B11B100F0A7FD80BD816A21F4DA
:1005400080718162816AC904F5D4816A41F0010138
:10055000816200F099FD80BD80B5406A816A41F0FA
:1005600040018162C16A41F00401C16200F0C4FD32
:1005700080BD000080B5406A00F0A6FD80BD00008F
:10058000B0B582B004460020019021688A68D20785
:100590003DD1886840F00100886040F20800C2F256
:1005A000000000684DF68361C4F21B31A0FB01011D
:1005B000880C00BF0190019810B101980138F9E74B
:1005C00001F080F921688968C9071CD1054603E05C
:1005D00020688068C00719D101F074F9401B032816
:1005E000F6D320688068C007F2D1A06A40F01000FE
:1005F000A062E06A40F00100E062002084F824007C
:10060000012002B0B0BD002002B0B0BD002002B099
:10061000B0BD000043F27C20C2F200000021017056
:100620007047000043F27C21C2F2000108780228E2
:100630004FF0000018BF704703220A7040F678217F
:10064000C2F200010870012070470000B0B543F20B
:100650008024C2F20004204600F072FB43F2B02571
:10066000C2F20005284600F06BFB284600F050FE61
:1006700040F27801C2F2000120464FF4A07200F06F
:1006800003FC43F20C40C2F2000001F0ADFFB0BD2C
:1006900001EB810100EB411040F67C2C4100130A74
:1006A000C2F2000C0CF81030481C0CF80020704707
:1006B00010B50C46014640F60000C4F2010001F0FE
:1006C000F5F870B901F0FEF843F25441C2F20001AE
:1006D00051F82420821AC82A03D341F824000120AB
:1006E00010BD002010BD00002DE9F04F83B000F0D8
:1006F000F7FA40F20C01C2F20001098804460846EC
:1007000003F0EEFA4DF28051C4F2917103F064FBF4
:1007100042F20041C4F6743103F098F940F214013A
:10072000C2F2000109880290084603F0D9FA4FF09E
:100730008B4103F051FB44F20001C4F24E7103F00F
:1007400085F90190204603F0B3FA002440F278586E
:1007500040F2000B82460027C4F22044C2F2000897
:10076000CCF2204B4EE000BF304603F065FA46F273
:10077000676105460130C6F2666180FB0112111205
:1007800001EBD27101EB8101A0EBC119284603F006
:100790008FFA0146304603F0EBFB38F8151005469A
:1007A000084603F09DFA06464FF07E50294603F0B6
:1007B000DFFB314603F010FB38F8191006460846F7
:1007C00003F08EFA0146284603F006FB0146304648
:1007D00003F0A4F84FF0454103F0A0F8019903F0AD
:1007E00035F903F029FAC0F1400043F2804120EAD4
:1007F000E070C2F200017F28A8BF7F20C8550137F2
:10080000A02F1AD0384603F053FA0146029803F09D
:10081000E3FA514603F082F82146064603F003F955
:100820000028A1D13046594603F078F82146064603
:1008300003F0EBF80028F5D196E703B0BDE8F08FA0
:10084000FEE7000080B584B00020039001904FF4D3
:10085000F85000900120029040F60000C4F2010020
:10086000694600F015FF04B080BD00000429B8BF40
:1008700070472DE9F04F81B08A468146002740F647
:10088000FF740026002500BF39F81500A1B2884288
:10089000B9B238BF0446884288BF074603F020FA41
:1008A0000146304603F03AF80135AA450646EBD139
:1008B0005046BDB21FFA84FB03F0FAF98046304679
:1008C000414603F0C3F80746A5EB0B0040F6E441B0
:1008D000484343F26C41000BC2F20001BAF1010F30
:1008E0000095088016DBA9F102040026554600BFDA
:1008F00034F8020F03F0F4F9394603F039FB0146EE
:1009000003F06AFA0146304603F008F8013D064656
:10091000EED100E000263046414603F097F8002172
:100920000646002703F078F8F8B90F24374600BFD1
:100930003046394603F08AF80146384602F0EEFFA9
:100940004FF07C5103F048FA013C0746F0D144F2E5
:100950000001C4F24E51384603F03EFA4FF06651A2
:1009600003F03AFA03F068F90746009843F26C4C3A
:10097000C2F2000C5844ACF80270BAF1040F4FEA0E
:1009800050071EDB0AEBDA7041104FF0FF300022F7
:100990004FF0FF35002603E002328A421A4615DA8C
:1009A00039F822309F4202F10103F5D909EB8204A4
:1009B000A488A742F0D801361846002D48BF1D462E
:1009C000EAE74FF0FF3500264FF0FF30022EA8BFB8
:1009D000A84203DC0020CCF8080030E0A0EB0508BA
:1009E000404603F065F98246701E03F061F9014646
:1009F000504603F02BF801464DF20050C4F211703E
:100A000003F024F84FF07C5102F088FF03F030F936
:100A100043F26C4CC2F2000CCCF8080009EB8500E4
:100A2000011F0020424600BF31F8043F9F4298BF9B
:100A30000130013AF8D164214843B0FBF8F08CF85A
:100A4000040001B0BDE8F04F7047000040F278525A
:100A5000C2F2000202EB410140F27802C2F200024F
:100A600002EB800C002200BF5CF8223001EB820018
:100A700021F8223001321B0CA02A4380F4D17047A8
:100A800080B543F2E020C2F2000000F0B1FC80BD6E
:100A900080B543F22430C2F2000000F0A9FC80BD12
:100AA000B0B5D0E900CED0E90F40012505FA00F03D
:100AB00060600846CCF80430BEF1100F04BF104649
:100AC0000A46CCF80800CCF80C20B0BD70470000F6
:100AD0002DE9F04F81B01C46A2F120035E2B00905F
:100AE00002D901B0BDE8F08F0A984FF6C06302EB5F
:100AF0008202CFF6FF7303EB4209A1EB000A002547
:100B000003E000BF01350A2DEBD00AEB05061F2ECE
:100B1000F8D840F20000C2F20000406809EB05017D
:100B200030F811B0009F4FF00F0806E0A8F101085F
:100B3000B8F1080F07F10107E4D09F2FF6D82BFA80
:100B400008F0C007F2D0384631462246FFF7A0FD34
:100B5000ECE700002DE9F04182B01C4613789BB110
:100B6000DDF820800D460646571E00BFDAB230463B
:100B700029462346CDF80080FFF7AAFFBB78083648
:100B8000002B07F10107F1D102B0BDE8F0810000B0
:100B9000F0B581B00446002503E000BF0135202DEB
:100BA0001CD02F1938070AD16FF0010602363046E3
:100BB000294644F20822FFF76BFD9E2EF6D3F80774
:100BC000ECD16FF00F0600BF10363046294644F2D4
:100BD0000822FFF75DFD902EF6D3DFE701B0F0BDF0
:100BE0002DE9F04F83B01C46151A0F469046064675
:100BF00048BF6D42B4EB070B48BFCBF1000B4FF081
:100C0000FF30B0454FF0FF31DDF830A0C8BF012103
:100C10000191BC42C8BF01200290A5EB0B09CBF1AA
:100C20000000009002E000BF002018B3A7EB0A010B
:100C30001F2998BF9F2E04D830464DF21F02FFF7A0
:100C400027FDA74208BF4645EED000984946B0EBC5
:100C5000490FB8BFA1EB0B010198B8BF0644B5EB33
:100C6000490FC8BF29440298C8BF074401208946DC
:100C70000028DBD103B0BDE8F08F0000EFF3108057
:100C800072B600BFFEE700002DE9F04F81B0012BE6
:100C9000009022DBDDE90A7099469046A1EB000A3C
:100CA000002502E001354D4517D00AEB05061F2E41
:100CB000F8D8B8F1010FF5DB009CC34605E000BF92
:100CC000BBF1010B04F10104ECD09F2CF8D82046B5
:100CD00031463A46FFF7DCFCF2E701B0BDE8F08FA1
:100CE00080B540F2785CC2F2000CACF1020E00213B
:100CF00040F6FF734FF420703EF8022F8A4288BFFF
:100D000011469A4238BF13460138F5D158184FF6AC
:100D1000815140080CF10202CFF6FF7104E000BFE0
:100D2000013102F1020209D232F8023C9842F7D9AD
:100D300013889842F4D801F5207080BD002080BD52
:100D400070B582B004460020019094F82400012878
:100D500001D1022568E0012084F824002046FFF735
:100D6000A5FB2046FFF70CFC0546002859D1A06AD8
:100D700041F2021188430230A06240F20800C2F240
:100D800000000668022000F027FEB6FBF0F04000ED
:100D90000190019810B101980138F9E72068816845
:100DA00041F00801816000F08DFD216851F8082FA5
:100DB000120711D5064603E020688168090709D5A6
:100DC00000F080FD801B0B28F6D3206880680007A8
:100DD000F2D51EE000F10801086840F00400086048
:100DE00000F070FD21688968490703D401206FF085
:100DF000030112E0064603E0206880684007F5D54D
:100E000000F060FD801B0B28F6D320688068400747
:100E1000F2D5012510206FF01201A26A114008439B
:100E2000A062002084F82400284602B070BD0000B3
:100E300090F82420012A04BF022070470123026891
:100E400080F824309368DB070AD142F2004CC4F2E8
:100E5000010CDCF80834624508BF13F0010309D027
:100E6000816A41F0200181620121002280F8242062
:100E700008467047DCF80430096823F470231943EE
:100E800051600021F1E70000F0B58DB00F46044637
:100E900001A830211546FFF725FA94F8240001280F
:100EA00001D1022666E0012084F8240042F6000009
:100EB000C4F201000190806800F46020B0F5602F5A
:100EC00009D12046FFF75CFB064668B196B10020C9
:100ED00084F824004EE0A06A012640F02000A062C1
:100EE000002084F8240045E001A8FFF749FB0646EE
:100EF000002EECD12168A06A4FF6FE42CFF6EF72C9
:100F0000104000F58070A0624868400504D5A06AD2
:100F1000012262F30D30A062002084F82400E06218
:100F2000206A40F20552C0F6000240F2755340F2CA
:100F3000595C00F1280EC0F60003C0F6000C8EE8E4
:100F40000C106FF002020A608A682B4642F480722D
:100F50008A604C313A4600F051FB2068816801F408
:100F600060228168B2F5602F14BF41F4801141F412
:100F7000A001816030460DB0F0BD000070B581B0B9
:100F80000022009290F82420012A01D1022177E06A
:100F90004A680123062A80F8243005D803686FF0D8
:100FA000040C03F1340E0AE003680C2A87BF03F136
:100FB0002C0E6FF0400C03F1300E6FF0220C02EBA0
:100FC0008202DEF8005062441F230C68934025EA39
:100FD000030304FA02F21A43CEF800200E68D0F898
:100FE00000E006EB46051024092E88BF1E3D88BF91
:100FF0000C245EF8042007238968AB409A43A9407B
:1010000011434EF8041026F001014FF0000C102996
:101010004FF0000132D142F20041C4F201018E458D
:1010200005D0816A41F020018162012126E08968B2
:10103000090222D4DEF80810102E41F40001CEF887
:1010400008101AD140F20801C2F2000109684DF6F9
:101050008362C4F21B32A1FB0212910C01EB8101ED
:1010600049000091009941B100990139009100991E
:1010700000294FF00001F7D100E0002180F824C0E2
:10108000084601B070BD000010B5006842F2004192
:10109000C4F20101884218BF10BD43F27C24C2F2A1
:1010A0000004207801280DD1A0204FF4A071FFF793
:1010B000CDFC0220207040F67820C2F20000012111
:1010C000017010BD207810BD10B5006842F20041DB
:1010D000C4F20101884200D010BD43F27C24C2F268
:1010E00000042078002818BF10BD00200021FFF761
:1010F000ADFC0120207010BD70470000002804BF27
:1011000001207047F0B581B00746044657F8280F14
:1011100030B90020E06284F82400204600F07CF81A
:101120002046FFF7C3F9A26AA16A002808BF12F09F
:10113000100205D041F010010120396001B0F0BD6E
:1011400041F2021291430231A162E169D4E9013214
:1011500041EA0305511EB1FA81F149091346B2F57E
:10116000807F18BF0B02267D217B012E45EA410CB2
:1011700013D141B1A16A41F02001A162E16A41F0BD
:101180000101E16209E0A1694EF20006CFF6FF76A7
:1011900006EB4131194341F400632168B2F5807FC9
:1011A0004E6826F4694643EA06034B608B684FF2AB
:1011B000FD76CFF6E17603EA060343EA0C038B6083
:1011C00001D0012A06D122690023CFF6F07303EB88
:1011D000025200E00022CB6A23F470031A43CA6271
:1011E000896840F6FE62CFF61F721140614506D154
:1011F0000021E162A16A012262F301019DE7A06A78
:1012000040F0100020F00200A06254F82C0F40F0D3
:1012100001010120274690E7B0B586B0044600687A
:1012200042F60001C4F2010188424FF00001CDE90D
:101230000411CDE9021147D042F20041C4F201018C
:10124000884262D141F21800C4F20200016841F400
:1012500000710160016801F4007101910199016858
:1012600041F004010160006802A900F0040001904F
:101270000198022002900320039040F60000C4F27F
:10128000010000F005FA43F2E0250820C2F2000553
:10129000C4F202000021C5E9000105F10800802226
:1012A0004FF400734FF4006C4FF0200E80E80E50A6
:1012B0002846E96100F05EF9002818BFFFF7DEFC60
:1012C00025626C6206B0B0BD41F21800C4F20200A3
:1012D000016841F480610160016801F4806101915D
:1012E0000199016841F004010160006802A900F061
:1012F000040001900198022002900320039040F620
:101300000000C4F2010000F0C3F906B0B0BD000057
:1013100010B5044690F82400012804BF022010BD37
:10132000012084F824002046FFF72AF918B1002193
:1013300084F8241010BD42F2044C2168A26AC4F261
:10134000010C40F201339A430CF57F7E02F5807266
:101350007145A26207D0A26A22F48012A2624A6892
:10136000520519D41DE0DCF8002012F4702FF2D0E1
:10137000A26A42F60003C4F2010342F480129942C9
:10138000A26205D042F20042C4F20102914208D1A9
:10139000DCF80020520504D5A26A012363F30D3264
:1013A000A262A36A0022DB044FF0000344BFE36A99
:1013B00023F00603E36284F824206FF002020A603F
:1013C0008A6802F46022B2F5602F0BD1714504D017
:1013D0008A6842F4A0028A6010BDDCF8002012F492
:1013E000702FF5D08A6842F480128A6010BD000028
:1013F00010B50168D0E90FCEDCF800200B685C075F
:1014000027D5042404FA0EF4144022D00A68920668
:1014100003D40A6822F004020A6002682F21C4F291
:1014200002018A4240F20401C4F202015ADD302373
:10143000C4F202039A426DD04423C4F202039A42DA
:101440006BD05823C4F202039A426BD14FF480232D
:1014500070E09C072AD5022404FA0EF4144025D02B
:101460000A68920606D40A6822F00A020A6001217C
:1014700080F8211002682F21C4F202018A4240F252
:101480000401C4F2020139DD3023C4F202039A429E
:1014900056D04423C4F202039A4254D05823C4F2D3
:1014A00002039A4254D14FF4003359E01B0758BF4E
:1014B00010BD082303FA0EF31A4012D00A6822F076
:1014C0000E020A60012101FA0EF2CCF804208163B9
:1014D00080F82110016B0022002980F8202018BF1D
:1014E000884710BD0823C4F202039A4218D01C2377
:1014F000C4F202039A4215D140231BE00823C4F230
:1015000002039A4222D01C23C4F202039A421FD142
:10151000202325E04FF480630CE04FF4804309E082
:10152000042307E001F168044FF08063A24208BF82
:101530004FF480030B60C16A0029D2D0884710BDE8
:101540004FF400730CE04FF4005309E0022307E06E
:1015500001F168044FF00073A24208BF4FF400137A
:101560000B60816A0022002980F82020B9D08847CA
:1015700010BD0000014600284FF0010008BF704771
:101580002DE9F043D1F800C04FF6F873CBF6FD73A8
:101590004CF6CD426344CCF6CC42A3FB02236FF061
:1015A000030707EA9303002701F10C09C4F20207BD
:1015B000D1E9012E99E87002D1F81C80C1E90F73BE
:1015C000022381F82130DCF8003043F6F077BB438A
:1015D0001A4342EA0E0222432A43324342EA0902F4
:1015E00042EA0802CCF8002000228A6381F8210038
:1015F00081F820200020BDE8F043704710B5044674
:1016000090F82000012820D0012084F8200094F8D0
:101610002100012816D1022084F821000020A063B7
:10162000D4F800C0DCF8000020F00100CCF8000085
:101630002046FFF735FA2068E26A01683AB141F0C6
:101640000E010AE0002084F82000022010BD21F0E5
:1016500004010160016841F00A010160016841F084
:1016600001010160002010BDB0B5044600F02AF968
:10167000054640F20E00C2F200000078611C18BF5F
:10168000044400BF00F01EF9401BA042FAD3B0BDD5
:101690002DE9F04F84B00E680290002E00F0038117
:1016A00040F20C4E40F2004741F200420298C4F270
:1016B000010EC4F20107C4F2010204230024012533
:1016C0004FF0000A4FF00009904208BF0323009337
:1016D0000AE000BF01250E680AF1010A36FA0AF293
:1016E00004F1040400F0DF8005FA0AFB16EA0B0897
:1016F000F1D04A684FF6FF73C1F210039A4211DC31
:10170000122A54D80298DFE802F0350A43475353AF
:1017100053535353535353535353534A4E00D1F8D7
:101720000C9045E04FF6FF73C1F221039A4210DCA2
:101730000023C1F2110302989A421BD00023C1F288
:1017400012039A4216D00023C1F221039A4211D00B
:101750002EE00023C1F2220302989A420AD000230D
:10176000C1F231039A4205D00023C1F232039A42FA
:101770001ED100BF8A6842B1012A14BFC0F814B05C
:10178000C0F810B04FF0080912E04FF004090FE064
:10179000CA6802F108090BE04FF0000908E0CA68C6
:1017A00002F1040904E0CA6802F10C0900E00298A1
:1017B00022460346B8F5807F24BF203A04331D68D3
:1017C0004FF00F0C0CFA02F6B54309FA02F22A4365
:1017D0001A60CA79D2067FF57DAF41F21803CDF8C1
:1017E0000490C4F202031A68F34642F001021A6040
:1017F0001A684FEA9A0E02F001020392039AA7F5C3
:101800007E72B94652F82E3004F00C0740F60006FE
:101810000CFA07F5C4F20106B04223EA050C10D019
:1018200040F60043C4F2010398420CD041F2000399
:10183000C4F201039842009B4FF0010508BF022348
:1018400003E0002300E001230125BB4043EA0C0331
:1018500042F82E304E684F46F202D9F8082054BFA5
:1018600022EA080242EA0802DE46DDF80490BA6085
:10187000DEF80020B30254BF22EA080242EA08025E
:10188000CEF800207A68B30354BF22EA080242EA85
:1018900008027A603A68F30354BF22EA080242EA77
:1018A00008023A6017E704B0BDE8F08F806808408E
:1018B00018BF012070470000002A08BF0904016119
:1018C0007047000043F27C40C2F20000006870479D
:1018D00040F20E0043F27C41C2F20000C2F200016D
:1018E00000780A68104408607047000080B542F232
:1018F0000000C4F20200016841F010010160032001
:1019000000F066F80F2000F005F800F02BF800203A
:1019100080BD0000B0B540F20E02C2F2000240F2FB
:1019200008011278C2F200014FF47A730968B3FB20
:10193000F2F20446B1FBF2F1084600F0BDFD0F2CB7
:101940004FF001050CD858B94FF0FF302146002266
:10195000002500F02DF840F21000C2F200000460F3
:101960002846B0BD82B041F21800C4F202000168FE
:10197000022241F001010160016801F001010191C1
:101980000199416841F080514160406800F0805009
:10199000009000980420C4F20100016862F31A610B
:1019A000016002B07047000080B501F0E3FE80BD29
:1019B00070B514460D46064601F0ECFE2946224657
:1019C00001F032F90146304601F0ECFE70BD000036
:1019D00080B501F0F9FE80BD80B5012818D002283D
:1019E00041D010283DD141F20401C4F202010A683D
:1019F00051F8040CC00134D5C2F383402EA3185C07
:101A0000D2033FD440F60012C0F23D02504345E0FD
:101A100041F20400C4F20200C16940F202320A40FD
:101A2000B2F5817F04BF4FF4004080BD01F44071E6
:101A3000B1F5407F0DD0B1F5007F12D1026A920757
:101A400044BF49F6404080BDB1F5407F1CBF002037
:101A500080BD50F8040C4FF22441800301EAE0708D
:101A600080BD002080BD00F077F941F20401C4F28E
:101A7000020109680222C1F3813102EB4101B0FB8E
:101A8000F1F080BD0A6810A3C2F340429A5C41F2B3
:101A90000023C0F27A03B3FBF2F250430968490213
:101AA00048BF80BD4AF6AB214000CAF6AA21A0FB80
:101AB0000101480880BD00BF0203040506070809AC
:101AC0000A0B0C0D0E0F1010010200002DE9F04161
:101AD00082B00446007841F21C06C007C4F2020638
:101AE0004ED03068C0000BD430684FF0010840F091
:101AF00080503060306800F080500190019801E023
:101B00004FF0000847F20007C4F200073868C0052C
:101B100012D4386840F480703860FFF7D3FE054671
:101B20003868C00508D4FFF7CDFE401B6428F7D9FC
:101B3000032002B0BDE8F081706810F4407012D04C
:101B4000616801F4407188420DD0706840F24042F3
:101B5000C4F24222012320F4407113600023C00725
:101B60001360716029D17068616820F44070084387
:101B7000B8F1000F706003D0306820F08050306002
:101B80002068810707D556F8181CA26821F4404147
:101B9000114346F8181CC00603D4002002B0BDE86B
:101BA000F08156F8180CE16820F48000084346F8EC
:101BB000180C002002B0BDE8F081FFF783FE054657
:101BC00041F2883770688007CDD4FFF77BFE401B59
:101BD000B8424FF00300F5D9ECE700002DE9F043DF
:101BE00081B0002800F0878042F20008C4F20208A9
:101BF0000446D8F800000D4600F0070088420CD2D9
:101C0000D8F8000020F007002843C8F80000D8F8F2
:101C1000000000F00700A8426DD1206841F20409DD
:101C20008107C4F2020917D5410705D5D9F800107C
:101C300041F4E061C9F80010010705D5D9F800109A
:101C400041F46051C9F80010D9F80010A26821F0E1
:101C5000F0011143C9F80010C00745D1D8F80000C1
:101C600000F00700A8420CD9D8F8000020F00700C7
:101C70002843C8F80000D8F8000000F00700A84288
:101C800039D12068410707D5D9F80010E26821F45E
:101C9000E0611143C9F80010000708D5D9F8000029
:101CA000216920F4605040EAC100C9F8000000F04A
:101CB00065F8D9F8001044F25A02C1F30311C0F6D6
:101CC0000002515C40F2080220FA01F140F21000DB
:101CD000C2F200000068C2F200021160FFF71AFEB3
:101CE000002001B0BDE8F0836068012807D159F8F1
:101CF000041C89030CD4012001B0BDE8F08359F81D
:101D0000041C022802D18901F5D501E08907F2D52A
:101D1000D9F8001021F003010843C9F80000FFF7CB
:101D2000D1FD064641F28837D9F80000616800F01D
:101D30000C00B0EB810F91D0FFF7C4FD801BB842BF
:101D4000F2D9032001B0BDE8F083000040F20800A2
:101D5000C2F200000068704780B5FFF7F7FF41F25C
:101D60000401C4F20201096844F26A02C1F3C2210B
:101D7000C0F60002515CC84080BD000041F2040C76
:101D8000C4F2020CDCF8003003F00C00082841F229
:101D90000020C0F27A0018BF7047C3F383420AA143
:101DA0008A5CD90305D440F60010C0F23D005043D0
:101DB0007047DCF8001008A3C1F34041595C504360
:101DC000B0FBF1F0704700BF0203040506070809E5
:101DD0000A0B0C0D0E0F1010010200002DE9F0414E
:101DE00082B0002800F0C4800446007841F200066A
:101DF000C007C4F2020643D0706800F00C0004284B
:101E000017D0706800F00C00082802D17068C00379
:101E10000FD465689DB1B5F5803F06D03068B5F543
:101E2000A02F0DD140F480203060306840F4803025
:101E30000CE03068800323D5606808BB98E0306808
:101E400020F480303060306820F480203060FFF76C
:101E500039FD002D054610D03068800310D4FFF7FF
:101E600031FD401B6428F7D908E100BFFFF72AFDC8
:101E7000401B64284FF0030077D830688003F5D406
:101E80002078800718D5706810F00C0F07D07068A4
:101E900000F00C00082826D17068C00323D43068F5
:101EA000800702D52069012862D13068616920F07D
:101EB000F80040EAC1003060207800073DD5A069F5
:101EC00038B30020C4F242200121C0F88014FFF78B
:101ED000F9FC0546706A80072DD4FFF7F3FC401B20
:101EE0000228F7D9CAE02069002840F20000C4F2B5
:101EF000422000F09A8001210160FFF7E3FC0546D3
:101F000030688007D1D4FFF7DDFC401B0228F7D9E9
:101F1000B4E00020C4F242200021C0F88014FFF792
:101F2000D1FC0546706A800707D5FFF7CBFC401B44
:101F30000228F7D9A2E000F08FFE207840071BD4DA
:101F4000E5698DB1706800F00C0008284CD1012DB6
:101F50000ED07068216A00F480328A4208D1616A2A
:101F600000F47010884203D1002002B0BDE8F08177
:101F7000012002B0BDE8F081F069C0000BD4F06927
:101F80004FF0010840F08050F061F06900F080509F
:101F90000190019801E04FF0000847F20007C4F2F9
:101FA00000073868C00510D4386840F48070386085
:101FB000FFF788FC054600BF3868C00505D4FFF769
:101FC00081FC401B6428F7D958E0E568002D3DD01E
:101FD000012D05D0306A052D39D140F00400306262
:101FE000306A40F0010038E00027C4F242270020A8
:101FF0003866FFF767FC022D05460BD1306880017B
:1020000054D5FFF75FFC401B02284FF00300F5D9C1
:10201000ABE700BF30688001A6D5FFF753FC401B3B
:1020200002284FF00300F5D99FE700210160FFF778
:1020300049FC0546306880077FF53EAFFFF742FC5C
:10204000401B02284FF00300F4D98EE7306A20F0DD
:1020500001003062306A20F004003062FFF732FC89
:10206000002D054641F2883714D000BF306A800742
:1020700013D4FFF727FC401BB842F7D9032002B066
:10208000BDE8F081FFF71EFC401BB8424FF0030093
:102090003FF66BAF306A8007F4D4B8F1000F3FF41D
:1020A0004FAFF06920F08050F06149E7206AB0F549
:1020B000803F05D17168A26821F40031114371603D
:1020C0007168626A21F47411104308437060012042
:1020D0003866FFF7F7FB0446306880013FF544AFF0
:1020E000FFF7F0FB001B02284FF00300F4D93CE798
:1020F0007047000070B538B10446406A30B1002026
:10210000206104F1140007E0012070BD6068B0F5A3
:10211000827F03D004F11C00002101600026A6622A
:1021200094F8510020B9204684F8506000F038F847
:10213000022084F8510094E8071001F482710368CA
:1021400002F4044223F040030360236911440CF4B9
:102150000062114403F002026369114403F00102BA
:10216000A369E569114403F40072114405F03802D3
:10217000256A114405F08002A56A114305F4005256
:1021800011430160042101EA13414160C16921F456
:102190000061C1610120666584F85100304670BD60
:1021A00070B586B00026044640F600000596CDE9DD
:1021B0000366C4F20100216800F5205291420296A4
:1021C00001D006B070BD41F21801C4F202010A68E4
:1021D00042F480520A600A6802F480520192019A25
:1021E0000A6842F004020A60096801F004010191E2
:1021F0000199A0210291022103910321059102A9D5
:10220000FFF746FA43F224353020C2F20005C4F24B
:1022100002001021802285E843002846C5E90326F4
:10222000C5E90566EE61FFF7A5F9002818BFFEF7BE
:1022300025FDA5646C6206B070BD00002DE9F0417B
:1022400082B01D4616460F460446FFF73BFB94F846
:10225000511001290DD18046002F4FF0010018BF09
:10226000002E02D102B0BDE8F08194F850000128A0
:1022700003D1022002B0BDE8F081012084F85000B3
:10228000032084F85100002060652763A686E68657
:10229000A063A087E087A168C4E91000B1F5004FF2
:1022A00008D12068016821F040010160016841F413
:1022B0008041016020680168490603D4016841F04B
:1022C000400101606168731EE268B1FA81F1B3FAFE
:1022D00083F349095B09B2F5006F41EA030124D198
:1022E00039B1216B0988C160B81C2063E08E0138C8
:1022F000E086E08E002846D06E1C09E0216B31F8A4
:10230000022BC2602163E08E0138E086E08ED0B3FC
:10231000206881688907F1D4FFF7D4FA002EF5D040
:10232000A0EB0800A842F1D323E039B1397801735A
:10233000206B01302063E08E0138E086E08E10B320
:102340006E1C0AE0216B09780173206B0130206359
:10235000E08E0138E086E08EA8B1206881688907A8
:10236000F0D4FFF7AFFA002EF5D0A0EB0800A8429A
:10237000F1D3012084F85100002084F8500003209C
:1023800002B0BDE8F08120462946424600F0CAFC72
:1023900000281CBF20206065A06838B9002001908B
:1023A0002068C1680191806801900198012084F83B
:1023B0005100002084F85000606D002818BF0120F3
:1023C00002B0BDE8F0810000B0B5044690F85100BD
:1023D00001280AD100294FF0010018BF002A00D1BE
:1023E000B0BD94F85000012801D10220B0BD0120F9
:1023F00084F850000320002384F8510063652163B2
:10240000A286E286A363C4E91033A387E387A068AA
:10241000B0F5004F08D12068016821F0400101604B
:10242000016841F480410160A06C42F6A94C42F67B
:10243000B54E42F68545C0F6000CC0F6000EC0F65B
:1024400000052268216BC0E90AECC0E90C53E38E59
:102450000C32FFF7D3F840B1606D40F010006065BA
:10246000002084F850000120B0BD216808684006B3
:1024700003D4086840F040000860002084F8500051
:102480004A6842F020024A604A6842F002024A600A
:10249000B0BD0000006843F20001C4F201018842AF
:1024A00018BF704743F27840C2F20000002101706B
:1024B000704700007047000080B500F0A9FF80BDA4
:1024C00010B590F83C20012A4FF0020231D00123D0
:1024D00080F83C3080F83D200268D2F804E0D2F861
:1024E00008C00C682EF07003234340F2FF74C4F25E
:1024F0000004A242536005DCB2F1804F0ED040F2DE
:10250000004307E042F60043C4F201039A4205D0BB
:1025100040F60003C4F200039A4204D149682CF04B
:102520008003194391600121002280F83D1080F85A
:102530003C20104610BD0000002804BF0120704759
:1025400010B5044690F83D0028B9002084F83C00FE
:10255000204600F01FF8022084F83D002068211D6D
:1025600000F0B0FF012084F8460084F83E0084F8B3
:102570003F0084F8400084F8410084F8420084F869
:10258000430084F8440084F8450084F83D000020AE
:1025900010BD000082B0006840F20041C4F20001AA
:1025A000884211D0B0F1804F1BD141F21C00C4F21F
:1025B0000200016841F001010160006800F00100C3
:1025C0000190019802B0704741F21C00C4F2020071
:1025D000016841F002010160006800F00200009013
:1025E000009802B07047000090F83D1001291CBF10
:1025F00001207047022180F83D10006840F2FF7111
:10260000C4F20001884205DCB0F1804F0ED040F2E8
:10261000004107E042F60041C4F20101884205D0C2
:1026200040F60001C4F20001884206D1816801F041
:102630000701062904BF00207047016841F001012D
:10264000016000207047000010B5044690F83C007F
:1026500001284FF0020008BF10BD012284F83C2081
:1026600084F83D0020684FF6777382689A43826051
:102670000A684F2A0FDC1F2A22DD202A23D0302AA5
:1026800021D0402A4DD14B68CA68194601F04CF858
:10269000206840213BE06F2A17DDB2F5005F20D0B3
:1026A000B2F5805F2AD0702A3BD1D1E9012CCB68EA
:1026B000614600F067FF2068816841F077011AE009
:1026C0000AB1102A2DD1114621E0502A18D0602AD3
:1026D00027D14B68CA68194601F038F82068602194
:1026E00015E0D1E9012CCB68614600F04BFF206872
:1026F000816841F48041816000200BE0002009E006
:102700004B68CA68194601F00FF82068502100F0A4
:1027100045FF0020012184F83D10002184F83C1081
:1027200010BD0120F6E7000080B586B00068B0F16A
:10273000804F4FF00000CDE90400CDE9020001D048
:1027400006B080BD41F21800C4F20200016841F0F9
:1027500004010160006802A900F0040001900198E2
:102760000120029002200390059040F60000C4F280
:102770000100FEF78DFF06B080BD0000B0B5044635
:1027800090F83C00012804BF0220B0BD0D464FEA7E
:10279000B2010120032984F83C0037D8DFE801F0BA
:1027A000020A12222068294600F000FF206850F833
:1027B000181F0EE02068294600F028FF206850F816
:1027C000181F16E02068294600F054FF206850F8D2
:1027D0001C1F41F008010160016821F00401016043
:1027E00029690FE02068294600F078FF206850F83A
:1027F0001C1F41F400610160016821F480610160E7
:10280000296909020268114301600020002184F84F
:102810003C10B0BD002804BF0120704710B504462D
:1028200090F83D0028B9002084F83C00204600F0D4
:102830001FF8022084F83D002068211D00F042FEB0
:10284000012084F8460084F83E0084F83F0084F8B4
:10285000400084F8410084F8420084F8430084F882
:10286000440084F8450084F83D00002010BD0000BD
:1028700070470000B0B5044641B1082909D00429C9
:1028800014BF04F1410004F13F0004E004F13E00F4
:1028900001E004F14000007801281CBF0120B0BD18
:1028A000022041B1082909D0042914BF84F841004D
:1028B00084F83F0004E084F83E0001E084F8400022
:1028C000206842F644450122C4F2010500F048FEAA
:1028D0002068A5F14401884203D1296841F40041F0
:1028E000296040F2FF71C4F20001884205DCB0F1BA
:1028F000804F0ED040F2004107E042F60041C4F2A2
:102900000101884205D040F60001C4F2000188426E
:1029100006D1816801F00701062904BF0020B0BD7F
:10292000016841F0010101600020B0BDFEE7000038
:1029300080B584B043F2802042F200420021C2F20E
:102940000000C4F201024FF40023CDE90211CDE9E9
:10295000001101730175C361C0E90021816001218B
:102960000161FEF7CBFBD0B94FF4E020039043F2B6
:102970008020C2F2000003A9FEF75AFA78B90120BC
:10298000CDE900000020029043F28020C2F2000056
:102990006946FEF7F3FA002804BF04B080BDFEF7D5
:1029A0006DF90000B0B584B043F2B02042F60001EA
:1029B0000024C2F20000C4F201014FF4602201259C
:1029C0000394CDE9014404730475C261C0E90014A5
:1029D00084600561FEF792FB68B943F2B020C2F251
:1029E000000001A9CDE901550394FEF7C7FA0028BC
:1029F00004BF04B0B0BDFEF741F9000080B582B05D
:102A000041F21400C4F202000168002241F0010109
:102A100001600068002100F00100019001980B2086
:102A2000FEF7C6FF0B20FEF7BFFF0D20002100229E
:102A3000FEF7BEFF0D20FEF7B7FF02B080BD00001D
:102A400070B586B0002541F21800CDE90455CDE9F6
:102A50000255C4F20200016840F6004441F004014E
:102A600001600168C4F2010401F0040101910199BF
:102A70000168002241F008010160006840F2034152
:102A800000F0080001900198204640F20346FEF74E
:102A900013FF01200296CDE903050220059002A94B
:102AA0002046FEF7F5FD06B070BD000080B543F28C
:102AB0006C3043F20001C2F20000C4F201014FF495
:102AC000827200234FF4007C80E80E000A21C0E9E6
:102AD0000333C0E9053CC361C0E90833C0E90A31EA
:102AE000FFF708FB002808BF80BDFEF7C7F800000D
:102AF000B0B58EB043F2C4300021C2F200004FF0F6
:102B00008042372340F2CF750D91CDE90B11CDE90D
:102B10000911CDE90711CDE90511CDE90311CDE981
:102B20000111C0E90023C0E9021501618161FFF7CD
:102B300003FDD0BB4FF480500A9043F2C430C2F280
:102B400000000AA9FFF780FD78BB43F2C430C2F24F
:102B50000000FFF75FFE40BB43F2C434C2F2000442
:102B6000002508A92046CDE90855FFF7A9FCE0B9E2
:102B7000E0683221484348F21F51C5F2EB11A0FB37
:102B80000101602001904809CDE9020501A9204614
:102B900000220595FFF7F2FD38B943F2C430C2F2C6
:102BA0000000FFF7C1FD0EB0B0BDFEF767F80000F2
:102BB00080B586B043F20C4040F200420021C2F2E0
:102BC0000000C4F2000240F2DB53CDE90411CDE96C
:102BD0000211CDE90011C0E90021C0E90213016131
:102BE0008161FFF7A9FCC8B94FF48050029043F20D
:102BF0000C40C2F2000002A9FFF726FD70B92020A8
:102C000000900020019043F20C40C2F2000069469F
:102C1000FFF756FC002804BF06B080BDFEF72EF873
:102C2000FEE70000FEE7000000F0070080F0070369
:102C3000042B28BF04234FF0FF3C03380CFA03F3A6
:102C400038BF0020994381400CFA00F022EA0000CE
:102C5000084370477047000081B040F20800C2F29C
:102C60000000006844F6D351C1F26201A0FB0101EB
:102C7000480A009000BF0098411E00280091F9D139
:102C800001B0704780B5406A01684A6822F00302CB
:102C90004A60416D41F010014165012180F85110F9
:102CA000FFF726FA80BD000080B5406AFFF702FCFE
:102CB00080BD0000B0B582B0446A0546FEF702FE52
:102CC00029680968890628D402462068416821F0ED
:102CD00020014160416821F00201416020466421E9
:102CE00000F020F818B1606D40F020006065A06829
:102CF00038B9002001902068C16801918068019076
:102D000001980020E086012084F85100606D20B118
:102D10002046FFF7EDF902B0B0BD2046FFF7BAFB41
:102D200002B0B0BD70B582B00D4616460221012238
:102D30002B460446009600F013F840B92046802147
:102D400000222B460096002500F00AF820B1606DA5
:102D5000032540F020006065284602B070BD0000E9
:102D60002DE9F04782B00A9C984615460E468146EA
:102D7000FEF7A8FD201A00EB0804FEF7A3FD40F2C1
:102D80000801C2F200010968C1F3CB31614301912E
:102D9000D9F8001089683140891BB1FA81F14909DD
:102DA000A94203D1002002B0BDE8F087824608F1B5
:102DB000010709E0D9F8000080683040801BB0FAB4
:102DC00080F04009A842EDD0002FF3D0FEF77AFD45
:102DD000A0EB0A00A04207D201980199002808BF81
:102DE0000446481E0190E5E7D9E900014268B1F5C3
:102DF000827F22F0E00242600BD1D9F80810B1F5D1
:102E0000004F02D0B1F5806F03D1016821F040017D
:102E10000160D9F82810B1F5005F07D1016821F4ED
:102E200000510160016841F400510160012089F8FE
:102E30005100002089F85000032002B0BDE8F0875F
:102E400010B540F60044C4F2010420464FF48061FE
:102E50000022FEF731FDC820FEF706FC20464FF4A5
:102E600080610122FEF728FDC820FEF7FDFB01204E
:102E700000F00CFD7820FEF7F7FB112000F006FDB6
:102E8000C820FEF7F1FBB12000F000FD012000F0AA
:102E900021FD2C2000F01EFD2D2000F01BFDB22096
:102EA00000F0F4FC012000F015FD2C2000F012FDD4
:102EB0002D2000F00FFDB32000F0E8FC012000F011
:102EC00009FD2C2000F006FD2D2000F003FD01205F
:102ED00000F000FD2C2000F0FDFC2D2000F0FAFC9D
:102EE000B42000F0D3FC072000F0F4FCC02000F078
:102EF000CDFCA22000F0EEFC022000F0EBFC8420D0
:102F000000F0E8FCC12000F0C1FCC52000F0E2FCAC
:102F1000C22000F0BBFC0A2000F0DCFC002000F026
:102F2000D9FCC32000F0B2FC8A2000F0D3FC2A2098
:102F300000F0D0FCC42000F0A9FC8A2000F0CAFCFC
:102F4000EE2000F0C7FCC52000F0A0FC0E2000F031
:102F5000C1FCE02000F09AFC022000F0BBFC1C2029
:102F600000F0B8FC072000F0B5FC122000F0B2FC25
:102F7000372000F0AFFC322000F0ACFC292000F03C
:102F8000A9FC2D2000F0A6FC292000F0A3FC2520A0
:102F900000F0A0FC2B2000F09DFC392000F09AFCF2
:102FA000002000F097FC012000F094FC032000F0CA
:102FB00091FC102000F08EFCE12000F067FC032063
:102FC00000F088FC1D2000F085FC072000F082FC4A
:102FD000062000F07FFC2E2000F07CFC2C2000F06E
:102FE00079FC292000F076FC2D2000F073FC2E20C7
:102FF00000F070FC2E2000F06DFC372000F06AFC21
:103000003F2000F067FC002000F064FC002000F08E
:1030100061FC022000F05EFC102000F05BFC36201A
:1030200000F034FC682000F055FC202000F02EFC5D
:103030003A2000F02BFC052000F04CFC292000F089
:1030400025FC6420FEF710FB10BD00002DE9F04FB9
:103050009FB040F21401C2F200010B88044692A214
:1030600019A81821FDF7B4F840F20C00C2F20000D4
:1030700003888FA213A81821FDF7AAF843F269402C
:10308000C2F200000078F8B143F26C46C2F20006CA
:10309000338803AD88A228461021FDF799F873887C
:1030A00005F1100087A21021FDF792F8337905F1A0
:1030B000200087A21021FDF78BF8B36805F13000DE
:1030C00086A21021FDF784F840F67C2643F2784969
:1030D0004FF0000BC2F20006C2F2000930464FF476
:1030E00020514FEA4B17B246FDF7FCF83846FDF782
:1030F0004FFDBBF1030F18BF202F00F2C18020202D
:1031000000EB4B15002002E09F2E304614D0221811
:10311000215C5378461C99421A4688BF0A46BA4237
:10312000F2D399421A4638BF0A46AA42ECD2324636
:103130000097FDF755FDE7E7BBF1010F21D843F2FA
:103140006940C2F200000078D8B141F6E300CDE951
:1031500000070020002150222C234FF00008FDF72B
:1031600093FD03AD002041462A464FF6FF730097BA
:10317000FDF7F0FC08F10B08B8F12C0F05F1100574
:10318000F0D1BBF1000F564617D143F26830C2F2BE
:103190000000007888B14FF478400090782000213A
:1031A00028220A230197FDF76FFD7C2000214DA204
:1031B0004FF6FF730097FDF7CDFC562F2DD342F24B
:1031C0000410009000207521A0220B230197FDF729
:1031D0005BFD43F26848C2F2000898F800004FF621
:1031E000FF7100284FF4FC60A1F11F0508BF2846BD
:1031F00083B20220752119AA0097FDF7ABFC98F85D
:103200000000752101284FF4FC6018BF0546ABB2E1
:10321000682013AA0097FDF79DFC47F01F00F9B244
:10322000C3B200209F2200F061F840F60045C4F2CE
:103230000105284601210022FEF73EFB2846022117
:103240000122FEF739FB012089F8000043F26C30BF
:10325000C2F2000031464FF42052FFF7B5F800BF2C
:1032600099F800000028FBD1284601210122FEF731
:1032700023FB0BF1010BBBF1040F7FF42FAF10E028
:10328000C7F14006002503E00135A02D3FF437AF1C
:103290006807F9D4284631464FF6FF72FDF7F8F972
:1032A000F2E71FB0BDE8F08F25756D562F64000062
:1032B000257575732F6400005670703A25756D562C
:1032C0000000000056726D733A25756D56000000BF
:1032D000447574793A25752525000000463A257510
:1032E000487A0000484F4C4400000000F0B581B01F
:1032F00007462A201C4616460D4600F0C7FA002055
:1033000000F0E8FA384600F0E5FA002000F0E2FAB2
:10331000304600F0DFFA2B2000F0B8FA002000F071
:10332000D9FA284600F0D6FA002000F0D3FA204659
:1033300000F0D0FA2C2000F0A9FA01B0F0BD000096
:103340007047000010B54FF480700021FDF7B0F910
:1033500043F26844C2F2000418B1207880F0010002
:1033600020704FF400700121FDF7A2F9B8B1207868
:1033700050B140F20C00C2F20000018841F2563216
:1033800091420CD8323109E040F21400C2F2000040
:10339000018842F2AC62914201D8643101804FF45D
:1033A00080600221FDF784F998B1207840B140F2A5
:1033B0000C00C2F20000018864290AD3323907E008
:1033C00040F21400C2F200000188C82901D3643918
:1033D00001804FF400600321FDF76AF938B143F230
:1033E0006940C2F20000017881F0010101704FF4E0
:1033F00080500421FDF75CF9002808BF10BD43F29E
:103400006830C2F20000017881F00101017010BD46
:10341000B0B501380024B4EB106F1CBF0120B0BD63
:103420004EF21005CEF2000568604FF0FF300F211C
:1034300000F0B8F90720AC6028602046B0BD00005D
:1034400080B5FEF745FA80BD70B594B00AAC204651
:103450002821FCF747FF01200E90102000250226AE
:103460000F904FF440100A96CDE911651390204655
:103470000995CDE90755CDE90555CDE90355CDE9C8
:103480000155FEF7ABFCC0B90F20CDE905064FF49E
:1034900080600795CDE9080505A80221FEF79EFB8F
:1034A00058B9022001904FF48040039001A8FEF724
:1034B0000DFB002804BF14B070BDFDF7DFFB00005A
:1034C0007047000010B540F2FF7E0368C4F2000EA2
:1034D00042F6004C7045C4F2010C05DCB0F1804F9F
:1034E0000AD040F2004203E0604505D040F60002F9
:1034F000C4F20002904203D14A6823F070031343E0
:10350000704505DCB0F1804F0AD040F2004203E084
:10351000604505D040F60002C4F20002904203D19B
:10352000CA6823F44073134323F080024B69D1F837
:1035300000E08C681A4360450260C462C0F828E06D
:1035400002D10969CCF83010012141610169C90734
:1035500008BF10BD016921F00101016110BD00002B
:1035600080B501F01F014FF0010CD0F820E00CFAFB
:1035700001F32EEA03030362036A02FA01F119431D
:10358000016280BDD0F808C011432CF47F4C41EAA1
:10359000032141EA0C01816070470000826822F03B
:1035A0007002114341F007018160704770B5026AF3
:1035B000036A42F6004E23F0010303624568836903
:1035C0000C688E6823F0730322F00202C4F2010E2D
:1035D00043EA040C704542EA060208D070450ED05A
:1035E0004560C0F818C049684163026270BDCB688D
:1035F00022F00C0223F004031A437045F0D125F4A5
:103600004073D1E9056533431D43E9E770B5026AAC
:10361000036A42F6004E23F0100303624568836993
:103620000C688E6823F4E64322F02002C4F2010EF7
:1036300043EA042C704542EA061208D0704510D0C7
:103640004560C0F818C049688163026270BDCB68EC
:103650006FF0400422F0C00204EA03131A437045DD
:10366000EED125F44063D1E9056543EA860343EAD8
:103670008505E5E770B5026A036A42F6004E23F459
:10368000807303624568C3690C688E6823F0730316
:1036900022F40072C4F2010E43EA040C704542EABF
:1036A000062208D0704510D04560C0F81CC049689B
:1036B000C163026270BDCB6840F2FF441B0222F47A
:1036C0004062A3431A437045EED125F44053D1E93B
:1036D000056543EA061343EA0515E5E7B0B5D0F8FA
:1036E00020E0026A22F4805202624468C3690A68D8
:1036F00023F4E6438D6843EA022C42F600432EF49D
:103700000052C4F20103984242EA053304D14A69E7
:1037100024F4804545EA82144460C0F81CC049681E
:1037200001640362B0BD0000D0F820C0036A23F03A
:1037300001030362836923F0F00343EA02122CF0D1
:103740000A0319438261016270470000D0F820C06B
:10375000036A23F010030362836923F4704343EA8E
:1037600002322CF0A00343EA01118261016270472A
:10377000FEE70000002848BF704700F01F0101224B
:1037800002FA01F14EF200124009CEF2000242F8B4
:10379000201070474EF60C50CEF200000068C0F3C7
:1037A000022070474EF6145300F00F02CEF20003D1
:1037B00009011A4400F16043B0F1FF3FC8BF03F5AF
:1037C00064421170704700004EF60C51CEF20001B9
:1037D0000A684FF6FF031A4060F30A2242F0806045
:1037E00040F0FD7008607047FEF780F8FFF72CFE90
:1037F000FFF726F9FFF702F9FFF758F9FFF798F8F6
:10380000FFF7D0F8FFF774F9FFF7D2F943F2C430AD
:10381000C2F200000021FFF72DF8FDF713F8FCF7C6
:1038200015FF40F60040C4F2010001210122FEF71D
:1038300043F8FFF705FB43F2683643F2694740F26D
:10384000785443F28045C2F20006C2F20007C2F289
:103850000004C2F2000504E0FCF7DCFE2846FFF796
:10386000F5FBFFF76FFD30780028F7D1FCF7DAFEA3
:103870000028F3D0FCF738FF38780028ECD0204639
:103880004FF42071FCF7F2FFE6E7000010B582B0BC
:1038900040F60044C4F201048DF8070020460121DF
:1038A0000022FEF709F8204602210022FEF704F864
:1038B00043F26C30C2F200000DF1070101226423D3
:1038C000FEF7BCFC204601210122FDF7F5FF02B006
:1038D00010BD000010B582B040F60044C4F20104EF
:1038E0008DF80700204601210022FDF7E5FF204664
:1038F00002210122FDF7E0FF43F26C30C2F200002A
:103900000DF1070101226423FEF798FC20460121F6
:103910000122FDF7D1FF02B010BD000090EA010FB7
:1039200048BF81F0004100F12A83421A3CBF801A4F
:1039300089184FEAD052A2EBD1534FF07F4C1CEACA
:10394000410F18BF9CEA026F00F03B804FF0004C23
:103950004CEA00204CEA012121FA03FC10EB0C0C8C
:103960001ED202F1FF325FEA1C2040EBC25038BF8A
:1039700070471CF07F0F4FEA400C18BFBCF17F4F1F
:1039800038BF7047C3F12003994008BF20F0010001
:10399000BCF17F4F38BF7047A0F1C04000F0E3BAE0
:1039A0004FEA3C00000A40EBC25028BF1CF0FF0F5A
:1039B0004FEA400CE6D018BFBCF17F4F38BF7047CC
:1039C000EAE79CEA026F05D010EA5C0F08BF00F03E
:1039D0000040704710B500F080FA00BF64FBBE3EA7
:1039E00010B500F0F5F80CBF0120002010BD10B597
:1039F00000F0EEF814BF0120002010BD10B500F05B
:103A000083F98CBF0120002010BD10B500F07CF9B7
:103A10002CBF0120002010BD10B500F0A9F994BF03
:103A20000120002010BD10B500F0A2F934BF012024
:103A3000002010BD401058BFC0F14040491058BF91
:103A4000C1F140418142EFF3008070474FF47F0C99
:103A50001CEAD0121EBF1CEAD11392EA0C0F93EAA3
:103A60000C0F00F0858090EA010F48BF42F480728D
:103A700040F4000C41F400002CF07F4120F07F4026
:103A800000B5A2EB030281420FF2081CACEB504ED2
:103A90009EF800E0C0F100004FEA4E0E00FB0EFC65
:103AA00038BF49004FEA2C1C0CFB0EF34FEACE1E28
:103AB0000EEB635E4FEA112C0EFB0CFC4FEAC121AA
:103AC0004FEA1C5300FB031102F5FA024FEA112CD6
:103AD0000EFB0CFC4FEA01314FEADC4C00FB0C11F1
:103AE00042EB2242C14228BF09184CEB03335DF878
:103AF00004EB10EB410143EBC250B2F57C0F38BF31
:103B0000704729D512F0F00F1CBF00F1C04000F043
:103B100000407047008182838485868788898B8CEA
:103B20008D8E8F919293959697999A9C9D9FA0A226
:103B3000A3A5A7A8AAACAEB0B2B3B5B7B9BCBEC076
:103B4000C2C5C7C9CCCED1D4D7D9DCDFE2E6E9EC17
:103B5000F0F3F7FAFE0000004FEA400C0CF1807C15
:103B6000BCF17E4F28BF7047B0F1C04000F0FBB9F8
:103B70000CEAD11390EA010F48BF42F4807262450B
:103B800038BF634507D213F47F0F16D080EA0100D7
:103B900000F00040704710B500F09FF9097EFC3E30
:103BA00000F005B880EA010000F00040704780EAAC
:103BB000010000F0004000F0D6B912F47F0F04BFFE
:103BC0000248704780EA010000F0CDB90000C07FD4
:103BD00050EA010C00F113801CF5000F58BFBCF532
:103BE000000F01D48842704707D710F5000F58BF67
:103BF00011F5000F15D488427047894270471CF5B3
:103C0000000F04D5BCF5000FF7D5814270474FF087
:103C1000807C1CEB400F38BF1CEB410F01D281426E
:103C2000704710B500F059F9922449004FF0005048
:103C30004FF08051FFF7FEBE41000B0ED3F19E0204
:103C400008D950F400034FEA032323FA02F048BFD7
:103C50004042704710B500F040F900BF49922480FF
:103C6000002070476FF0004282EA20007047000099
:103C7000C10DD1F19E0206DB4FEA002343F0004361
:103C800023FA02F07047004207D54FEA4001B1F134
:103C9000FE4F02D24FF00000704710B500F01DF942
:103CA00049922480002070476FEA2000704700008E
:103CB00010F0004148BF4042B0FA80F310FA03F21E
:103CC000C3F19D030BD051EAC35101EB12205306FF
:103CD00038BF704700F1010008BF20F001007047B5
:103CE000B0FA80F310FA03F2C3F19D030AD0D905AC
:103CF00001EB1220530638BF704700F1010008BFE6
:103D000020F001007047000050EA010C00F1138020
:103D10001CF5000F58BFBCF5000F01D48842704756
:103D200007D710F5000F58BF11F5000F15D48842C2
:103D30007047894270471CF5000F04D5BCF5000F91
:103D4000F7D5814270474FF0807C1CEB400F38BFA5
:103D50001CEB410F01D28142704710B500F0BDF855
:103D6000922449004FF080504FF00051FFF762BE9F
:103D700050EA010C00F113801CF5000F58BFBCF590
:103D8000000F01D48842704707D710F5000F58BFC5
:103D900011F5000F15D488427047894270471CF511
:103DA000000F04D5BCF5000FF7D5814270474FF0E6
:103DB000807C1CEB400F38BF1CEB410F01D28142CD
:103DC000704710B500F089F8922449004FF0005078
:103DD0004FF08051FFF72EBE4FF47F0C1CEAD0123B
:103DE0001EBF1CEAD11392EA0C0F93EA0C0F00F0ED
:103DF000478090EA010F48BF42F480724FF0004CB8
:103E00004CEA00204CEA012102EB0302A0FB011363
:103E1000A2F50002002918BF43F001035B0028BF90
:103E20004FEA330342EB22425FEA132C4CEBC250C1
:103E30002EBFBCEB436FB2F57C0F70474FEA036CAB
:103E4000BCF1004F08BF20F00100B2F57C0F38BF75
:103E500070470BD582F0FF0212F5803FC8BF704754
:103E600000F1C040D8BF00F00040704700F5000CE2
:103E70005FEA4C0C48BF7047B0F1C04000F073B827
:103E80000CEAD11390EA010F48BF42F480726245F8
:103E900038BF634504D280EA010000F0004070475B
:103EA00010B500F01AF800BF8900013E00F007B815
:103EB00000F009B85FEA410C5FEA1C6C08D080EAA8
:103EC000010000F050B85FEA400C5FEA1C6CF6D1CC
:103ED0004FF00040A0F5800070470EF1020E2EF06A
:103EE000030E5EF8044B244204D44FEA4102B2F1BF
:103EF0007F4F11D84FEA4003B3F17F4F0CD80ED15A
:103F00004FEAD07C0CEB4C0C0CF1020CB2F17F4F61
:103F100008BF4CEBD17C04E04FF0080C01E04FEA05
:103F2000D17C0CEB4C0324FA03F404F00704B4F145
:103F3000040C06D20EEB840CBDE810404CF0010CD2
:103F40006047DFE80CF0070802024FF00040A0F5E0
:103F5000800010BD0846420018BFD2F1807288BFB1
:103F600000F0004010BDFF2141EAD050C00570476D
:103F700090EA010F48BF81F000413FF5D6AC421AEC
:103F800004D882F00042A0EB020011444FEAD05264
:103F9000A2EBD1534FF07F4C1CEA410F18BF9CEAB3
:103FA000026F4AD04FF0004C4CEA00204CEA01214D
:103FB00021FA03FCB0EB0C0C0FD412F0FE0F36D03C
:103FC0005FEA4C001DD5001240EBC25038BF70476D
:103FD0001CF03F0F18BF70470BE05FEA1C20A2F1F6
:103FE000010240EBC25038BF70471CF07F0F18BF72
:103FF0007047C3F12003994014BF401E20F0010018
:1040000070474FEA1223800808BF7047B0FA80FC5F
:10401000A2EB0C02CCF1280C60FA0CF093EA122F00
:1040200004BF00EBC25070474FEAC3707047130AD9
:104030005FEADC1008BF7047F6E79CEA026F04D025
:1040400010EA5C0F08BF0020704710B5FFF745FF6E
:1040500040DFF63E81F000407047000000000000A5
:104060000000010203040607080900000000010225
:104070000304000000000000000000000000000039
:1040800000000000000000100010001000100010E0
:104090000010000000100000000000280028002888
:1040A00000000000000000000000000000000024EC
:1040B0000024007C00240048007C004800480000E8
:1040C0000000003800540050003800140054005420
:1040D0000038001000000020005400580030002874
:1040E0000054001400080000000000100028002800
:1040F00000100034004800480034000000000010A8
:10410000001000100000000000000000000000008F
:1041100000000008001000200020002000200020E7
:10412000002000100008002000100008000800080F
:1041300000080008000800100020001000380010DF
:104140000028000000000000000000000000000047
:10415000000000100010007C0010001000000000A3
:10416000000000000000000000000000000000004F
:10417000001000100010000000000000000000000F
:1041800000380000000000000000000000000000F7
:104190000000000000000000001000000000000807
:1041A0000008001000100010001000200020000087
:1041B000000000380044004400540044004400441F
:1041C0000038000000000010003000500010001007
:1041D00000100010001000000000003800440044EF
:1041E0000004000800100020007C000000000038DF
:1041F00000440004001800040004004400380000DB
:10420000000000080018002800280048007C000872
:10421000000800000000007C00400040007800041E
:104220000004004400380000000000380044004052
:104230000078004400440044003800000000007C86
:1042400000040008001000100020002000200000E2
:10425000000000380044004400380044004400449A
:104260000038000000000038004400440044003CD6
:1042700000040044003800000000000000000010AE
:10428000000000000000000000100000000000001E
:1042900000000000001000000000000000100010EE
:1042A000001000000000000C003000400030000C46
:1042B000000000000000000000000000007C000082
:1042C000007C000000000000000000000000006012
:1042D0000018000400180060000000000000003812
:1042E000004400040008001000100000001000004E
:1042F000000000380044004C0054005C00400040C6
:1043000000380000000000100028002800280028C5
:10431000007C004400440000000000780044004499
:104320000078004400440044007800000000003899
:1043300000440040004000400040004400380000BD
:10434000000000700048004400440044004400485D
:10435000007000000000007C00400040007C004035
:1043600000400040007C00000000007C0040004055
:10437000007800400040004000400000000000388D
:10438000004400400040005C00440044003800004D
:104390000000004400440044007C00440044004409
:1043A0000044000000000038001000100010001051
:1043B0000010001000380000000000040004000499
:1043C0000004000400040044003800000000004421
:1043D00000480050006000500048004800440000C1
:1043E000000000400040004000400040004000400D
:1043F000007C000000000044006C006C005400448D
:1044000000440044004400000000004400640064D4
:1044100000540054004C004C0044000000000038E0
:1044200000440044004400440044004400380000BC
:104430000000007800440044004400780040004040
:1044400000400000000000380044004400440044E4
:104450000044005400380004000000780044004488
:104460000044007800480048004400000000003884
:104470000044004000300008000400440038000000
:104480000000007C00100010001000100010001050
:1044900000100000000000440044004400440044B8
:1044A0000044004400380000000000440044004480
:1044B0000028002800280010001000000000004420
:1044C0000044005400540054006C002800280000F0
:1044D00000000044002800280010001000280028D8
:1044E00000440000000000440044002800280010A0
:1044F00000100010001000000000007C0004000804
:104500000010001000200040007C00000000001897
:10451000001000100010001000100010001000101B
:1045200000180020002000100010001000100008EB
:104530000008000000000030001000100010001003
:10454000001000100010001000300010002800289B
:104550000044000000000000000000000000000017
:10456000000000000000000000000000000000004B
:1045700000FE00200010000000000000000000000D
:104580000000000000000000000000380044003C73
:104590000044004C0034000000000040004000587F
:1045A0000064004400440064005800000000000063
:1045B0000000003800440040004000440038000083
:1045C0000000000400040034004C00440044004C8F
:1045D0000034000000000000000000380044007CAF
:1045E00000400044003800000000000C0010007C77
:1045F000001000100010001000100000000000006B
:1046000000000034004C00440044004C003400041E
:10461000007800400040005800640044004400441A
:1046200000440000000000100000007000100010A6
:1046300000100010001000000000001000000070CA
:1046400000100010001000100010001000E00040EA
:104650000040004800500060005000480044000046
:10466000000000700010001000100010001000107A
:10467000001000000000000000000078005400540A
:1046800000540054005400000000000000000058D6
:1046900000640044004400440044000000000000A6
:1046A000000000380044004400440044003800008A
:1046B0000000000000000058006400440044006452
:1046C000005800400040000000000034004C00444E
:1046D0000044004C003400040004000000000058B6
:1046E0000064004000400040004000000000000066
:1046F000000000380044003000080044003800008A
:104700000000002000200078002000200020002071
:1047100000180000000000000000004400440044B5
:104720000044004C00340000000000000000004481
:1047300000440028002800280010000000000000AD
:104740000000005400540054006C002800280000B1
:1047500000000000000000440028001000100028A5
:104760000044000000000000000000440044002855
:104770000028001000100010006000000000007C05
:104780000008001000200040007C0000000000181D
:104790000010001000100020002000100010001079
:1047A0000018001000100010001000100010001081
:1047B0000010001000100030001000100010000861
:1047C0000008001000100010003000000000000081
:1047D0000074004C00000000000000000000000019
:1047E0000048000800000020180000002801000810
:1047F0001848000818000020083B00004401000889
:10480000070A00007240000800127A00F40101005B
:0848100010000000E8030000A5
:04000005080000ED02
:00000001FF
